{
  "address": "0xb0d29B2f82989A87691Fe57d0AA991fA419EBeA8",
  "abi": [
    {
      "inputs": [
        {
          "internalType": "address",
          "name": "_challenge12HeroNFT",
          "type": "address"
        },
        {
          "internalType": "address",
          "name": "_challenge12Dungeon",
          "type": "address"
        },
        {
          "internalType": "address",
          "name": "_nftContract",
          "type": "address"
        }
      ],
      "stateMutability": "nonpayable",
      "type": "constructor"
    },
    {
      "inputs": [
        {
          "internalType": "address",
          "name": "spender",
          "type": "address"
        },
        {
          "internalType": "uint256",
          "name": "allowance",
          "type": "uint256"
        },
        {
          "internalType": "uint256",
          "name": "needed",
          "type": "uint256"
        }
      ],
      "name": "ERC20InsufficientAllowance",
      "type": "error"
    },
    {
      "inputs": [
        {
          "internalType": "address",
          "name": "sender",
          "type": "address"
        },
        {
          "internalType": "uint256",
          "name": "balance",
          "type": "uint256"
        },
        {
          "internalType": "uint256",
          "name": "needed",
          "type": "uint256"
        }
      ],
      "name": "ERC20InsufficientBalance",
      "type": "error"
    },
    {
      "inputs": [
        {
          "internalType": "address",
          "name": "approver",
          "type": "address"
        }
      ],
      "name": "ERC20InvalidApprover",
      "type": "error"
    },
    {
      "inputs": [
        {
          "internalType": "address",
          "name": "receiver",
          "type": "address"
        }
      ],
      "name": "ERC20InvalidReceiver",
      "type": "error"
    },
    {
      "inputs": [
        {
          "internalType": "address",
          "name": "sender",
          "type": "address"
        }
      ],
      "name": "ERC20InvalidSender",
      "type": "error"
    },
    {
      "inputs": [
        {
          "internalType": "address",
          "name": "spender",
          "type": "address"
        }
      ],
      "name": "ERC20InvalidSpender",
      "type": "error"
    },
    {
      "anonymous": false,
      "inputs": [
        {
          "indexed": true,
          "internalType": "address",
          "name": "owner",
          "type": "address"
        },
        {
          "indexed": true,
          "internalType": "address",
          "name": "spender",
          "type": "address"
        },
        {
          "indexed": false,
          "internalType": "uint256",
          "name": "value",
          "type": "uint256"
        }
      ],
      "name": "Approval",
      "type": "event"
    },
    {
      "anonymous": false,
      "inputs": [
        {
          "indexed": true,
          "internalType": "address",
          "name": "from",
          "type": "address"
        },
        {
          "indexed": true,
          "internalType": "address",
          "name": "to",
          "type": "address"
        },
        {
          "indexed": false,
          "internalType": "uint256",
          "name": "value",
          "type": "uint256"
        }
      ],
      "name": "Transfer",
      "type": "event"
    },
    {
      "inputs": [
        {
          "internalType": "address",
          "name": "owner",
          "type": "address"
        },
        {
          "internalType": "address",
          "name": "spender",
          "type": "address"
        }
      ],
      "name": "allowance",
      "outputs": [
        {
          "internalType": "uint256",
          "name": "",
          "type": "uint256"
        }
      ],
      "stateMutability": "view",
      "type": "function"
    },
    {
      "inputs": [
        {
          "internalType": "address",
          "name": "spender",
          "type": "address"
        },
        {
          "internalType": "uint256",
          "name": "value",
          "type": "uint256"
        }
      ],
      "name": "approve",
      "outputs": [
        {
          "internalType": "bool",
          "name": "",
          "type": "bool"
        }
      ],
      "stateMutability": "nonpayable",
      "type": "function"
    },
    {
      "inputs": [
        {
          "internalType": "address",
          "name": "account",
          "type": "address"
        }
      ],
      "name": "balanceOf",
      "outputs": [
        {
          "internalType": "uint256",
          "name": "",
          "type": "uint256"
        }
      ],
      "stateMutability": "view",
      "type": "function"
    },
    {
      "inputs": [
        {
          "internalType": "uint256",
          "name": "amount",
          "type": "uint256"
        }
      ],
      "name": "burn",
      "outputs": [],
      "stateMutability": "nonpayable",
      "type": "function"
    },
    {
      "inputs": [],
      "name": "challenge12Dungeon",
      "outputs": [
        {
          "internalType": "address",
          "name": "",
          "type": "address"
        }
      ],
      "stateMutability": "view",
      "type": "function"
    },
    {
      "inputs": [],
      "name": "challenge12HeroNFT",
      "outputs": [
        {
          "internalType": "address",
          "name": "",
          "type": "address"
        }
      ],
      "stateMutability": "view",
      "type": "function"
    },
    {
      "inputs": [],
      "name": "decimals",
      "outputs": [
        {
          "internalType": "uint8",
          "name": "",
          "type": "uint8"
        }
      ],
      "stateMutability": "view",
      "type": "function"
    },
    {
      "inputs": [
        {
          "internalType": "address",
          "name": "_to",
          "type": "address"
        }
      ],
      "name": "mint",
      "outputs": [],
      "stateMutability": "nonpayable",
      "type": "function"
    },
    {
      "inputs": [],
      "name": "name",
      "outputs": [
        {
          "internalType": "string",
          "name": "",
          "type": "string"
        }
      ],
      "stateMutability": "view",
      "type": "function"
    },
    {
      "inputs": [],
      "name": "nftContract",
      "outputs": [
        {
          "internalType": "address",
          "name": "",
          "type": "address"
        }
      ],
      "stateMutability": "view",
      "type": "function"
    },
    {
      "inputs": [],
      "name": "symbol",
      "outputs": [
        {
          "internalType": "string",
          "name": "",
          "type": "string"
        }
      ],
      "stateMutability": "view",
      "type": "function"
    },
    {
      "inputs": [],
      "name": "totalSupply",
      "outputs": [
        {
          "internalType": "uint256",
          "name": "",
          "type": "uint256"
        }
      ],
      "stateMutability": "view",
      "type": "function"
    },
    {
      "inputs": [
        {
          "internalType": "address",
          "name": "to",
          "type": "address"
        },
        {
          "internalType": "uint256",
          "name": "amount",
          "type": "uint256"
        }
      ],
      "name": "transfer",
      "outputs": [
        {
          "internalType": "bool",
          "name": "",
          "type": "bool"
        }
      ],
      "stateMutability": "nonpayable",
      "type": "function"
    },
    {
      "inputs": [
        {
          "internalType": "address",
          "name": "from",
          "type": "address"
        },
        {
          "internalType": "address",
          "name": "to",
          "type": "address"
        },
        {
          "internalType": "uint256",
          "name": "value",
          "type": "uint256"
        }
      ],
      "name": "transferFrom",
      "outputs": [
        {
          "internalType": "bool",
          "name": "",
          "type": "bool"
        }
      ],
      "stateMutability": "nonpayable",
      "type": "function"
    }
  ],
  "transactionHash": "0xa4522ffa1c37d99b0d65d8bb9cd8895e3dfd1532e678e35516e100d1c2d16dd4",
  "args": [
    "0x87bEf3bA85c62d93b0B339A9da1f751dF39269f9",
    "0x6Cd24762643cCBC6B0b2a2110F8773e29043398e",
    "0x0A8875B3Cb3642E4f09A1eed79347b3Ef8F882E2"
  ],
  "numDeployments": 1,
  "solcInputHash": "760304bfe83a38663d29b3559b4867ca",
  "bytecode": "0x60806040523480156200001157600080fd5b5060405162000ee138038062000ee183398101604081905262000034916200010d565b6040518060400160405280601481526020017f4368616c6c656e67653132476f6c64546f6b656e0000000000000000000000008152506040518060400160405280600781526020016610cc4c91d3d31160ca1b81525081600390816200009b9190620001fc565b506004620000aa8282620001fc565b5050600580546001600160a01b039586166001600160a01b03199182161790915560068054948616948216949094179093555060078054919093169116179055620002c8565b80516001600160a01b03811681146200010857600080fd5b919050565b6000806000606084860312156200012357600080fd5b6200012e84620000f0565b92506200013e60208501620000f0565b91506200014e60408501620000f0565b90509250925092565b634e487b7160e01b600052604160045260246000fd5b600181811c908216806200018257607f821691505b602082108103620001a357634e487b7160e01b600052602260045260246000fd5b50919050565b601f821115620001f757600081815260208120601f850160051c81016020861015620001d25750805b601f850160051c820191505b81811015620001f357828155600101620001de565b5050505b505050565b81516001600160401b0381111562000218576200021862000157565b62000230816200022984546200016d565b84620001a9565b602080601f8311600181146200026857600084156200024f5750858301515b600019600386901b1c1916600185901b178555620001f3565b600085815260208120601f198616915b82811015620002995788860151825594840194600190910190840162000278565b5085821015620002b85787850151600019600388901b60f8161c191681555b5050505050600190811b01905550565b610c0980620002d86000396000f3fe608060405234801561001057600080fd5b50600436106100ea5760003560e01c806370a082311161008c578063a9059cbb11610066578063a9059cbb146101e8578063ab04d350146101fb578063d56d229d1461020e578063dd62ed3e1461022157600080fd5b806370a082311461018c57806384780489146101b557806395d89b41146101e057600080fd5b806323b872dd116100c857806323b872dd14610142578063313ce5671461015557806342966c68146101645780636a6278421461017957600080fd5b806306fdde03146100ef578063095ea7b31461010d57806318160ddd14610130575b600080fd5b6100f761025a565b604051610104919061090f565b60405180910390f35b61012061011b366004610979565b6102ec565b6040519015158152602001610104565b6002545b604051908152602001610104565b6101206101503660046109a3565b610306565b60405160128152602001610104565b6101776101723660046109df565b61032a565b005b6101776101873660046109f8565b610337565b61013461019a3660046109f8565b6001600160a01b031660009081526020819052604090205490565b6005546101c8906001600160a01b031681565b6040516001600160a01b039091168152602001610104565b6100f76103b7565b6101206101f6366004610979565b6103c6565b6006546101c8906001600160a01b031681565b6007546101c8906001600160a01b031681565b61013461022f366004610a1a565b6001600160a01b03918216600090815260016020908152604080832093909416825291909152205490565b60606003805461026990610a4d565b80601f016020809104026020016040519081016040528092919081815260200182805461029590610a4d565b80156102e25780601f106102b7576101008083540402835291602001916102e2565b820191906000526020600020905b8154815290600101906020018083116102c557829003601f168201915b5050505050905090565b6000336102fa8185856105b1565b60019150505b92915050565b6000336103148582856105c3565b61031f858585610641565b506001949350505050565b61033433826106a0565b50565b6007546001600160a01b031633146103965760405162461bcd60e51b815260206004820152601a60248201527f4f6e6c79204e465420636f6e74726163742063616e206d696e7400000000000060448201526064015b60405180910390fd5b610334816103a66012600a610b81565b6103b2906103e8610b90565b6106da565b60606004805461026990610a4d565b6005546040516370a0823160e01b815233600482015260009182916001600160a01b03909116906370a0823190602401602060405180830381865afa158015610413573d6000803e3d6000fd5b505050506040513d601f19601f820116820180604052508101906104379190610ba7565b116104845760405162461bcd60e51b815260206004820152601860248201527f496e73756666696369656e74204e46542062616c616e63650000000000000000604482015260640161038d565b6006546040516377fc8fa160e11b81523260048201526001600160a01b039091169063eff91f4290602401602060405180830381865afa1580156104cc573d6000803e3d6000fd5b505050506040513d601f19601f820116820180604052508101906104f09190610ba7565b6005546040516370a0823160e01b81523360048201526001600160a01b03909116906370a0823190602401602060405180830381865afa158015610538573d6000803e3d6000fd5b505050506040513d601f19601f8201168201806040525081019061055c9190610ba7565b1061059d5760405162461bcd60e51b815260206004820152601160248201527057726f6e67204e46542062616c616e636560781b604482015260640161038d565b6105a8338484610641565b50600192915050565b6105be8383836001610710565b505050565b6001600160a01b03838116600090815260016020908152604080832093861683529290522054600019811461063b578181101561062c57604051637dc7a0d960e11b81526001600160a01b0384166004820152602481018290526044810183905260640161038d565b61063b84848484036000610710565b50505050565b6001600160a01b03831661066b57604051634b637e8f60e11b81526000600482015260240161038d565b6001600160a01b0382166106955760405163ec442f0560e01b81526000600482015260240161038d565b6105be8383836107e5565b6001600160a01b0382166106ca57604051634b637e8f60e11b81526000600482015260240161038d565b6106d6826000836107e5565b5050565b6001600160a01b0382166107045760405163ec442f0560e01b81526000600482015260240161038d565b6106d6600083836107e5565b6001600160a01b03841661073a5760405163e602df0560e01b81526000600482015260240161038d565b6001600160a01b03831661076457604051634a1406b160e11b81526000600482015260240161038d565b6001600160a01b038085166000908152600160209081526040808320938716835292905220829055801561063b57826001600160a01b0316846001600160a01b03167f8c5be1e5ebec7d5bd14f71427d1e84f3dd0314c0f7b2291e5b200ac8c7c3b925846040516107d791815260200190565b60405180910390a350505050565b6001600160a01b0383166108105780600260008282546108059190610bc0565b909155506108829050565b6001600160a01b038316600090815260208190526040902054818110156108635760405163391434e360e21b81526001600160a01b0385166004820152602481018290526044810183905260640161038d565b6001600160a01b03841660009081526020819052604090209082900390555b6001600160a01b03821661089e576002805482900390556108bd565b6001600160a01b03821660009081526020819052604090208054820190555b816001600160a01b0316836001600160a01b03167fddf252ad1be2c89b69c2b068fc378daa952ba7f163c4a11628f55a4df523b3ef8360405161090291815260200190565b60405180910390a3505050565b600060208083528351808285015260005b8181101561093c57858101830151858201604001528201610920565b506000604082860101526040601f19601f8301168501019250505092915050565b80356001600160a01b038116811461097457600080fd5b919050565b6000806040838503121561098c57600080fd5b6109958361095d565b946020939093013593505050565b6000806000606084860312156109b857600080fd5b6109c18461095d565b92506109cf6020850161095d565b9150604084013590509250925092565b6000602082840312156109f157600080fd5b5035919050565b600060208284031215610a0a57600080fd5b610a138261095d565b9392505050565b60008060408385031215610a2d57600080fd5b610a368361095d565b9150610a446020840161095d565b90509250929050565b600181811c90821680610a6157607f821691505b602082108103610a8157634e487b7160e01b600052602260045260246000fd5b50919050565b634e487b7160e01b600052601160045260246000fd5b600181815b80851115610ad8578160001904821115610abe57610abe610a87565b80851615610acb57918102915b93841c9390800290610aa2565b509250929050565b600082610aef57506001610300565b81610afc57506000610300565b8160018114610b125760028114610b1c57610b38565b6001915050610300565b60ff841115610b2d57610b2d610a87565b50506001821b610300565b5060208310610133831016604e8410600b8410161715610b5b575081810a610300565b610b658383610a9d565b8060001904821115610b7957610b79610a87565b029392505050565b6000610a1360ff841683610ae0565b808202811582820484141761030057610300610a87565b600060208284031215610bb957600080fd5b5051919050565b8082018082111561030057610300610a8756fea26469706673582212204b7f6a406b44ad48854c360454a66e3694a7de1772c08c5f95c6c6583bcac5bc64736f6c63430008140033",
  "devdoc": {
    "errors": {
      "ERC20InsufficientAllowance(address,uint256,uint256)": [
        {
          "details": "Indicates a failure with the `spender`s `allowance`. Used in transfers.",
          "params": {
            "allowance": "Amount of tokens a `spender` is allowed to operate with.",
            "needed": "Minimum amount required to perform a transfer.",
            "spender": "Address that may be allowed to operate on tokens without being their owner."
          }
        }
      ],
      "ERC20InsufficientBalance(address,uint256,uint256)": [
        {
          "details": "Indicates an error related to the current `balance` of a `sender`. Used in transfers.",
          "params": {
            "balance": "Current balance for the interacting account.",
            "needed": "Minimum amount required to perform a transfer.",
            "sender": "Address whose tokens are being transferred."
          }
        }
      ],
      "ERC20InvalidApprover(address)": [
        {
          "details": "Indicates a failure with the `approver` of a token to be approved. Used in approvals.",
          "params": {
            "approver": "Address initiating an approval operation."
          }
        }
      ],
      "ERC20InvalidReceiver(address)": [
        {
          "details": "Indicates a failure with the token `receiver`. Used in transfers.",
          "params": {
            "receiver": "Address to which tokens are being transferred."
          }
        }
      ],
      "ERC20InvalidSender(address)": [
        {
          "details": "Indicates a failure with the token `sender`. Used in transfers.",
          "params": {
            "sender": "Address whose tokens are being transferred."
          }
        }
      ],
      "ERC20InvalidSpender(address)": [
        {
          "details": "Indicates a failure with the `spender` to be approved. Used in approvals.",
          "params": {
            "spender": "Address that may be allowed to operate on tokens without being their owner."
          }
        }
      ]
    },
    "events": {
      "Approval(address,address,uint256)": {
        "details": "Emitted when the allowance of a `spender` for an `owner` is set by a call to {approve}. `value` is the new allowance."
      },
      "Transfer(address,address,uint256)": {
        "details": "Emitted when `value` tokens are moved from one account (`from`) to another (`to`). Note that `value` may be zero."
      }
    },
    "kind": "dev",
    "methods": {
      "allowance(address,address)": {
        "details": "See {IERC20-allowance}."
      },
      "approve(address,uint256)": {
        "details": "See {IERC20-approve}. NOTE: If `value` is the maximum `uint256`, the allowance is not updated on `transferFrom`. This is semantically equivalent to an infinite approval. Requirements: - `spender` cannot be the zero address."
      },
      "balanceOf(address)": {
        "details": "See {IERC20-balanceOf}."
      },
      "decimals()": {
        "details": "Returns the number of decimals used to get its user representation. For example, if `decimals` equals `2`, a balance of `505` tokens should be displayed to a user as `5.05` (`505 / 10 ** 2`). Tokens usually opt for a value of 18, imitating the relationship between Ether and Wei. This is the default value returned by this function, unless it's overridden. NOTE: This information is only used for _display_ purposes: it in no way affects any of the arithmetic of the contract, including {IERC20-balanceOf} and {IERC20-transfer}."
      },
      "name()": {
        "details": "Returns the name of the token."
      },
      "symbol()": {
        "details": "Returns the symbol of the token, usually a shorter version of the name."
      },
      "totalSupply()": {
        "details": "See {IERC20-totalSupply}."
      },
      "transferFrom(address,address,uint256)": {
        "details": "See {IERC20-transferFrom}. Emits an {Approval} event indicating the updated allowance. This is not required by the EIP. See the note at the beginning of {ERC20}. NOTE: Does not update the allowance if the current allowance is the maximum `uint256`. Requirements: - `from` and `to` cannot be the zero address. - `from` must have a balance of at least `value`. - the caller must have allowance for ``from``'s tokens of at least `value`."
      }
    },
    "version": 1
  },
  "userdoc": {
    "kind": "user",
    "methods": {},
    "version": 1
  },
  "storageLayout": {
    "storage": [
      {
        "astId": 339,
        "contract": "contracts/S2/Season2Challenge12.sol:Season2Challenge12GoldToken",
        "label": "_balances",
        "offset": 0,
        "slot": "0",
        "type": "t_mapping(t_address,t_uint256)"
      },
      {
        "astId": 345,
        "contract": "contracts/S2/Season2Challenge12.sol:Season2Challenge12GoldToken",
        "label": "_allowances",
        "offset": 0,
        "slot": "1",
        "type": "t_mapping(t_address,t_mapping(t_address,t_uint256))"
      },
      {
        "astId": 347,
        "contract": "contracts/S2/Season2Challenge12.sol:Season2Challenge12GoldToken",
        "label": "_totalSupply",
        "offset": 0,
        "slot": "2",
        "type": "t_uint256"
      },
      {
        "astId": 349,
        "contract": "contracts/S2/Season2Challenge12.sol:Season2Challenge12GoldToken",
        "label": "_name",
        "offset": 0,
        "slot": "3",
        "type": "t_string_storage"
      },
      {
        "astId": 351,
        "contract": "contracts/S2/Season2Challenge12.sol:Season2Challenge12GoldToken",
        "label": "_symbol",
        "offset": 0,
        "slot": "4",
        "type": "t_string_storage"
      },
      {
        "astId": 6980,
        "contract": "contracts/S2/Season2Challenge12.sol:Season2Challenge12GoldToken",
        "label": "challenge12HeroNFT",
        "offset": 0,
        "slot": "5",
        "type": "t_address"
      },
      {
        "astId": 6982,
        "contract": "contracts/S2/Season2Challenge12.sol:Season2Challenge12GoldToken",
        "label": "challenge12Dungeon",
        "offset": 0,
        "slot": "6",
        "type": "t_address"
      },
      {
        "astId": 6984,
        "contract": "contracts/S2/Season2Challenge12.sol:Season2Challenge12GoldToken",
        "label": "nftContract",
        "offset": 0,
        "slot": "7",
        "type": "t_address"
      }
    ],
    "types": {
      "t_address": {
        "encoding": "inplace",
        "label": "address",
        "numberOfBytes": "20"
      },
      "t_mapping(t_address,t_mapping(t_address,t_uint256))": {
        "encoding": "mapping",
        "key": "t_address",
        "label": "mapping(address => mapping(address => uint256))",
        "numberOfBytes": "32",
        "value": "t_mapping(t_address,t_uint256)"
      },
      "t_mapping(t_address,t_uint256)": {
        "encoding": "mapping",
        "key": "t_address",
        "label": "mapping(address => uint256)",
        "numberOfBytes": "32",
        "value": "t_uint256"
      },
      "t_string_storage": {
        "encoding": "bytes",
        "label": "string",
        "numberOfBytes": "32"
      },
      "t_uint256": {
        "encoding": "inplace",
        "label": "uint256",
        "numberOfBytes": "32"
      }
    }
  }
}