{
  "address": "0x0A8875B3Cb3642E4f09A1eed79347b3Ef8F882E2",
  "abi": [
    {
      "inputs": [
        {
          "internalType": "address",
          "name": "_initialOwner",
          "type": "address"
        },
        {
          "internalType": "address",
          "name": "_season1NFTFlags",
          "type": "address"
        }
      ],
      "stateMutability": "nonpayable",
      "type": "constructor"
    },
    {
      "inputs": [
        {
          "internalType": "address",
          "name": "sender",
          "type": "address"
        },
        {
          "internalType": "uint256",
          "name": "tokenId",
          "type": "uint256"
        },
        {
          "internalType": "address",
          "name": "owner",
          "type": "address"
        }
      ],
      "name": "ERC721IncorrectOwner",
      "type": "error"
    },
    {
      "inputs": [
        {
          "internalType": "address",
          "name": "operator",
          "type": "address"
        },
        {
          "internalType": "uint256",
          "name": "tokenId",
          "type": "uint256"
        }
      ],
      "name": "ERC721InsufficientApproval",
      "type": "error"
    },
    {
      "inputs": [
        {
          "internalType": "address",
          "name": "approver",
          "type": "address"
        }
      ],
      "name": "ERC721InvalidApprover",
      "type": "error"
    },
    {
      "inputs": [
        {
          "internalType": "address",
          "name": "operator",
          "type": "address"
        }
      ],
      "name": "ERC721InvalidOperator",
      "type": "error"
    },
    {
      "inputs": [
        {
          "internalType": "address",
          "name": "owner",
          "type": "address"
        }
      ],
      "name": "ERC721InvalidOwner",
      "type": "error"
    },
    {
      "inputs": [
        {
          "internalType": "address",
          "name": "receiver",
          "type": "address"
        }
      ],
      "name": "ERC721InvalidReceiver",
      "type": "error"
    },
    {
      "inputs": [
        {
          "internalType": "address",
          "name": "sender",
          "type": "address"
        }
      ],
      "name": "ERC721InvalidSender",
      "type": "error"
    },
    {
      "inputs": [
        {
          "internalType": "uint256",
          "name": "tokenId",
          "type": "uint256"
        }
      ],
      "name": "ERC721NonexistentToken",
      "type": "error"
    },
    {
      "inputs": [
        {
          "internalType": "address",
          "name": "owner",
          "type": "address"
        }
      ],
      "name": "OwnableInvalidOwner",
      "type": "error"
    },
    {
      "inputs": [
        {
          "internalType": "address",
          "name": "account",
          "type": "address"
        }
      ],
      "name": "OwnableUnauthorizedAccount",
      "type": "error"
    },
    {
      "anonymous": false,
      "inputs": [
        {
          "indexed": true,
          "internalType": "address",
          "name": "owner",
          "type": "address"
        },
        {
          "indexed": true,
          "internalType": "address",
          "name": "approved",
          "type": "address"
        },
        {
          "indexed": true,
          "internalType": "uint256",
          "name": "tokenId",
          "type": "uint256"
        }
      ],
      "name": "Approval",
      "type": "event"
    },
    {
      "anonymous": false,
      "inputs": [
        {
          "indexed": true,
          "internalType": "address",
          "name": "owner",
          "type": "address"
        },
        {
          "indexed": true,
          "internalType": "address",
          "name": "operator",
          "type": "address"
        },
        {
          "indexed": false,
          "internalType": "bool",
          "name": "approved",
          "type": "bool"
        }
      ],
      "name": "ApprovalForAll",
      "type": "event"
    },
    {
      "anonymous": false,
      "inputs": [
        {
          "indexed": true,
          "internalType": "address",
          "name": "caller",
          "type": "address"
        }
      ],
      "name": "Disabled",
      "type": "event"
    },
    {
      "anonymous": false,
      "inputs": [
        {
          "indexed": true,
          "internalType": "address",
          "name": "caller",
          "type": "address"
        }
      ],
      "name": "Enabled",
      "type": "event"
    },
    {
      "anonymous": false,
      "inputs": [
        {
          "indexed": true,
          "internalType": "address",
          "name": "minter",
          "type": "address"
        },
        {
          "indexed": true,
          "internalType": "uint256",
          "name": "tokenId",
          "type": "uint256"
        },
        {
          "indexed": true,
          "internalType": "uint256",
          "name": "challengeId",
          "type": "uint256"
        }
      ],
      "name": "FlagMinted",
      "type": "event"
    },
    {
      "anonymous": false,
      "inputs": [
        {
          "indexed": true,
          "internalType": "address",
          "name": "previousOwner",
          "type": "address"
        },
        {
          "indexed": true,
          "internalType": "address",
          "name": "newOwner",
          "type": "address"
        }
      ],
      "name": "OwnershipTransferred",
      "type": "event"
    },
    {
      "anonymous": false,
      "inputs": [
        {
          "indexed": true,
          "internalType": "address",
          "name": "from",
          "type": "address"
        },
        {
          "indexed": true,
          "internalType": "address",
          "name": "to",
          "type": "address"
        },
        {
          "indexed": true,
          "internalType": "uint256",
          "name": "tokenId",
          "type": "uint256"
        }
      ],
      "name": "Transfer",
      "type": "event"
    },
    {
      "inputs": [
        {
          "internalType": "address",
          "name": "minter",
          "type": "address"
        }
      ],
      "name": "addAllowedMinter",
      "outputs": [],
      "stateMutability": "nonpayable",
      "type": "function"
    },
    {
      "inputs": [
        {
          "internalType": "address[]",
          "name": "minters",
          "type": "address[]"
        }
      ],
      "name": "addAllowedMinterMultiple",
      "outputs": [],
      "stateMutability": "nonpayable",
      "type": "function"
    },
    {
      "inputs": [
        {
          "internalType": "address",
          "name": "",
          "type": "address"
        }
      ],
      "name": "allowedMinters",
      "outputs": [
        {
          "internalType": "bool",
          "name": "",
          "type": "bool"
        }
      ],
      "stateMutability": "view",
      "type": "function"
    },
    {
      "inputs": [
        {
          "internalType": "address",
          "name": "to",
          "type": "address"
        },
        {
          "internalType": "uint256",
          "name": "tokenId",
          "type": "uint256"
        }
      ],
      "name": "approve",
      "outputs": [],
      "stateMutability": "nonpayable",
      "type": "function"
    },
    {
      "inputs": [
        {
          "internalType": "address",
          "name": "owner",
          "type": "address"
        }
      ],
      "name": "balanceOf",
      "outputs": [
        {
          "internalType": "uint256",
          "name": "",
          "type": "uint256"
        }
      ],
      "stateMutability": "view",
      "type": "function"
    },
    {
      "inputs": [],
      "name": "disable",
      "outputs": [],
      "stateMutability": "nonpayable",
      "type": "function"
    },
    {
      "inputs": [],
      "name": "enable",
      "outputs": [],
      "stateMutability": "nonpayable",
      "type": "function"
    },
    {
      "inputs": [],
      "name": "enabled",
      "outputs": [
        {
          "internalType": "bool",
          "name": "",
          "type": "bool"
        }
      ],
      "stateMutability": "view",
      "type": "function"
    },
    {
      "inputs": [],
      "name": "enabledAt",
      "outputs": [
        {
          "internalType": "uint256",
          "name": "",
          "type": "uint256"
        }
      ],
      "stateMutability": "view",
      "type": "function"
    },
    {
      "inputs": [
        {
          "internalType": "uint256",
          "name": "",
          "type": "uint256"
        }
      ],
      "name": "flagColors",
      "outputs": [
        {
          "internalType": "string",
          "name": "",
          "type": "string"
        }
      ],
      "stateMutability": "view",
      "type": "function"
    },
    {
      "inputs": [
        {
          "internalType": "uint256",
          "name": "tokenId",
          "type": "uint256"
        }
      ],
      "name": "getApproved",
      "outputs": [
        {
          "internalType": "address",
          "name": "",
          "type": "address"
        }
      ],
      "stateMutability": "view",
      "type": "function"
    },
    {
      "inputs": [],
      "name": "goldTokenAddress",
      "outputs": [
        {
          "internalType": "address",
          "name": "",
          "type": "address"
        }
      ],
      "stateMutability": "view",
      "type": "function"
    },
    {
      "inputs": [
        {
          "internalType": "address",
          "name": "",
          "type": "address"
        },
        {
          "internalType": "uint256",
          "name": "",
          "type": "uint256"
        }
      ],
      "name": "hasMinted",
      "outputs": [
        {
          "internalType": "bool",
          "name": "",
          "type": "bool"
        }
      ],
      "stateMutability": "view",
      "type": "function"
    },
    {
      "inputs": [
        {
          "internalType": "address",
          "name": "owner",
          "type": "address"
        },
        {
          "internalType": "address",
          "name": "operator",
          "type": "address"
        }
      ],
      "name": "isApprovedForAll",
      "outputs": [
        {
          "internalType": "bool",
          "name": "",
          "type": "bool"
        }
      ],
      "stateMutability": "view",
      "type": "function"
    },
    {
      "inputs": [
        {
          "internalType": "address",
          "name": "_recipient",
          "type": "address"
        },
        {
          "internalType": "uint256",
          "name": "_challengeId",
          "type": "uint256"
        }
      ],
      "name": "mint",
      "outputs": [],
      "stateMutability": "nonpayable",
      "type": "function"
    },
    {
      "inputs": [],
      "name": "name",
      "outputs": [
        {
          "internalType": "string",
          "name": "",
          "type": "string"
        }
      ],
      "stateMutability": "view",
      "type": "function"
    },
    {
      "inputs": [
        {
          "internalType": "address",
          "name": "",
          "type": "address"
        },
        {
          "internalType": "address",
          "name": "from",
          "type": "address"
        },
        {
          "internalType": "uint256",
          "name": "tokenId",
          "type": "uint256"
        },
        {
          "internalType": "bytes",
          "name": "data",
          "type": "bytes"
        }
      ],
      "name": "onERC721Received",
      "outputs": [
        {
          "internalType": "bytes4",
          "name": "",
          "type": "bytes4"
        }
      ],
      "stateMutability": "nonpayable",
      "type": "function"
    },
    {
      "inputs": [],
      "name": "owner",
      "outputs": [
        {
          "internalType": "address",
          "name": "",
          "type": "address"
        }
      ],
      "stateMutability": "view",
      "type": "function"
    },
    {
      "inputs": [
        {
          "internalType": "uint256",
          "name": "tokenId",
          "type": "uint256"
        }
      ],
      "name": "ownerOf",
      "outputs": [
        {
          "internalType": "address",
          "name": "",
          "type": "address"
        }
      ],
      "stateMutability": "view",
      "type": "function"
    },
    {
      "inputs": [
        {
          "internalType": "address",
          "name": "minter",
          "type": "address"
        }
      ],
      "name": "removeAllowedMinter",
      "outputs": [],
      "stateMutability": "nonpayable",
      "type": "function"
    },
    {
      "inputs": [],
      "name": "renounceOwnership",
      "outputs": [],
      "stateMutability": "nonpayable",
      "type": "function"
    },
    {
      "inputs": [
        {
          "internalType": "address",
          "name": "from",
          "type": "address"
        },
        {
          "internalType": "address",
          "name": "to",
          "type": "address"
        },
        {
          "internalType": "uint256",
          "name": "tokenId",
          "type": "uint256"
        }
      ],
      "name": "safeTransferFrom",
      "outputs": [],
      "stateMutability": "nonpayable",
      "type": "function"
    },
    {
      "inputs": [
        {
          "internalType": "address",
          "name": "from",
          "type": "address"
        },
        {
          "internalType": "address",
          "name": "to",
          "type": "address"
        },
        {
          "internalType": "uint256",
          "name": "tokenId",
          "type": "uint256"
        },
        {
          "internalType": "bytes",
          "name": "data",
          "type": "bytes"
        }
      ],
      "name": "safeTransferFrom",
      "outputs": [],
      "stateMutability": "nonpayable",
      "type": "function"
    },
    {
      "inputs": [],
      "name": "season1NFTFlags",
      "outputs": [
        {
          "internalType": "address",
          "name": "",
          "type": "address"
        }
      ],
      "stateMutability": "view",
      "type": "function"
    },
    {
      "inputs": [
        {
          "internalType": "address",
          "name": "operator",
          "type": "address"
        },
        {
          "internalType": "bool",
          "name": "approved",
          "type": "bool"
        }
      ],
      "name": "setApprovalForAll",
      "outputs": [],
      "stateMutability": "nonpayable",
      "type": "function"
    },
    {
      "inputs": [
        {
          "internalType": "address",
          "name": "_goldTokenAddress",
          "type": "address"
        }
      ],
      "name": "setGoldTokenAddress",
      "outputs": [],
      "stateMutability": "nonpayable",
      "type": "function"
    },
    {
      "inputs": [
        {
          "internalType": "bytes4",
          "name": "interfaceId",
          "type": "bytes4"
        }
      ],
      "name": "supportsInterface",
      "outputs": [
        {
          "internalType": "bool",
          "name": "",
          "type": "bool"
        }
      ],
      "stateMutability": "view",
      "type": "function"
    },
    {
      "inputs": [],
      "name": "symbol",
      "outputs": [
        {
          "internalType": "string",
          "name": "",
          "type": "string"
        }
      ],
      "stateMutability": "view",
      "type": "function"
    },
    {
      "inputs": [],
      "name": "tokenIdCounter",
      "outputs": [
        {
          "internalType": "uint256",
          "name": "",
          "type": "uint256"
        }
      ],
      "stateMutability": "view",
      "type": "function"
    },
    {
      "inputs": [
        {
          "internalType": "uint256",
          "name": "",
          "type": "uint256"
        }
      ],
      "name": "tokenIdToChallengeId",
      "outputs": [
        {
          "internalType": "uint256",
          "name": "",
          "type": "uint256"
        }
      ],
      "stateMutability": "view",
      "type": "function"
    },
    {
      "inputs": [
        {
          "internalType": "uint256",
          "name": "tokenId",
          "type": "uint256"
        }
      ],
      "name": "tokenURI",
      "outputs": [
        {
          "internalType": "string",
          "name": "",
          "type": "string"
        }
      ],
      "stateMutability": "view",
      "type": "function"
    },
    {
      "inputs": [
        {
          "internalType": "uint256",
          "name": "",
          "type": "uint256"
        }
      ],
      "name": "tokensClaimed",
      "outputs": [
        {
          "internalType": "bool",
          "name": "",
          "type": "bool"
        }
      ],
      "stateMutability": "view",
      "type": "function"
    },
    {
      "inputs": [
        {
          "internalType": "address",
          "name": "from",
          "type": "address"
        },
        {
          "internalType": "address",
          "name": "to",
          "type": "address"
        },
        {
          "internalType": "uint256",
          "name": "tokenId",
          "type": "uint256"
        }
      ],
      "name": "transferFrom",
      "outputs": [],
      "stateMutability": "nonpayable",
      "type": "function"
    },
    {
      "inputs": [
        {
          "internalType": "address",
          "name": "newOwner",
          "type": "address"
        }
      ],
      "name": "transferOwnership",
      "outputs": [],
      "stateMutability": "nonpayable",
      "type": "function"
    }
  ],
  "transactionHash": "0x9db0c27783b596800c59eb58d6c0622e67477eac4434c612bacc3ef491b6551d",
  "args": [
    "0xdbD2bA19030a57431B3EB714784f1Bd68ECFf46D",
    "0xc1Ebd7a78FE7c075035c516B916A7FB3f33c26cE"
  ],
  "numDeployments": 1,
  "solcInputHash": "760304bfe83a38663d29b3559b4867ca",
  "bytecode": "0x600c805460ff191690556007610260818152662334623535363360c81b6102805260809081526102a08281526611b231991b191b60c91b6102c05260a0526102e0828152662365613538306360c81b6103005260c0526103208281526611b21c9b9b981b60c91b6103405260e0526103608281526608d8d84e184c0d60ca1b61038052610100526103a08281526608cd8d584ccc1960ca1b6103c052610120526103e0828152662331366133346160c81b6104005261014052610420828152662330353936363960c81b61044052610160526104608281526604660c8726870760cb1b61048052610180526104a08281526611981c1c98b11960c91b6104c0526101a0526104e0828152662330323834633760c81b610500526101c0526105208281526611991a9b19b2b160c91b610540526101e052610560828152662334663436653560c81b61058052610200526105a08281526608cdd8ccd8595960ca1b6105c052610220526106206040526105e0918252662339333333656160c81b61060052610240919091526200019990601090600f620002e8565b50348015620001a757600080fd5b506040516200481438038062004814833981016040819052620001ca91620003cf565b816040518060400160405280600e81526020016d212396a1aa2316a9b2b0b9b7b71960911b8152506040518060400160405280600681526020016521aa2316a99960d11b8152508160009081620002229190620004ac565b506001620002318282620004ac565b5050506001600160a01b0381166200026357604051631e4fbdf760e01b81526000600482015260240160405180910390fd5b6200026e8162000296565b50600780546001600160a01b0319166001600160a01b03929092169190911790555062000578565b600680546001600160a01b038381166001600160a01b0319831681179093556040519116919082907f8be0079c531659141344cd1fd0a4f28419497f9722a3daafe3b4186f6b6457e090600090a35050565b82600f810192821562000326579160200282015b82811115620003265782518290620003159082620004ac565b5091602001919060010190620002fc565b506200033492915062000338565b5090565b80821115620003345760006200034f828262000359565b5060010162000338565b50805462000367906200041d565b6000825580601f1062000378575050565b601f0160209004906000526020600020908101906200039891906200039b565b50565b5b808211156200033457600081556001016200039c565b80516001600160a01b0381168114620003ca57600080fd5b919050565b60008060408385031215620003e357600080fd5b620003ee83620003b2565b9150620003fe60208401620003b2565b90509250929050565b634e487b7160e01b600052604160045260246000fd5b600181811c908216806200043257607f821691505b6020821081036200045357634e487b7160e01b600052602260045260246000fd5b50919050565b601f821115620004a757600081815260208120601f850160051c81016020861015620004825750805b601f850160051c820191505b81811015620004a3578281556001016200048e565b5050505b505050565b81516001600160401b03811115620004c857620004c862000407565b620004e081620004d984546200041d565b8462000459565b602080601f831160018114620005185760008415620004ff5750858301515b600019600386901b1c1916600185901b178555620004a3565b600085815260208120601f198616915b82811015620005495788860151825594840194600190910190840162000528565b5085821015620005685787850151600019600388901b60f8161c191681555b5050505050600190811b01905550565b61428c80620005886000396000f3fe608060405234801561001057600080fd5b50600436106102065760003560e01c806380960a4d1161011a578063b76ba2e4116100ad578063e320a05b1161007c578063e320a05b14610462578063e985e9c514610482578063f2fde38b14610495578063f8f1147d146104a8578063ffc42782146104d657600080fd5b8063b76ba2e414610416578063b88d4fde14610429578063bad39b961461043c578063c87b56dd1461044f57600080fd5b806395d89b41116100e957806395d89b41146103ea57806398bdf6f5146103f2578063a22cb465146103fb578063a3907d711461040e57600080fd5b806380960a4d146103aa578063863ba49d146103bd5780638da5cb5b146103d05780638f7e9c04146103e157600080fd5b80632f2770db1161019d57806342842e0e1161016c57806342842e0e14610348578063488603df1461035b5780636352211e1461036e57806370a0823114610381578063715018a6146103a257600080fd5b80632f2770db146102e75780633f522c8a146102ef57806340c10f1914610312578063423afa661461032557600080fd5b8063150b7a02116101d9578063150b7a02146102885780631ea81375146102b4578063238dafe0146102c757806323b872dd146102d457600080fd5b806301ffc9a71461020b57806306fdde0314610233578063081812fc14610248578063095ea7b314610273575b600080fd5b61021e6102193660046119c9565b6104e9565b60405190151581526020015b60405180910390f35b61023b61053b565b60405161022a9190611a3d565b61025b610256366004611a50565b6105cd565b6040516001600160a01b03909116815260200161022a565b610286610281366004611a85565b6105f6565b005b61029b610296366004611aaf565b610605565b6040516001600160e01b0319909116815260200161022a565b60075461025b906001600160a01b031681565b600c5461021e9060ff1681565b6102866102e2366004611b4a565b610853565b6102866108de565b61021e6102fd366004611a50565b600e6020526000908152604090205460ff1681565b610286610320366004611a85565b61091d565b61021e610333366004611b86565b60086020526000908152604090205460ff1681565b610286610356366004611b4a565b61097c565b610286610369366004611b86565b61099c565b61025b61037c366004611a50565b6109c8565b61039461038f366004611b86565b6109d3565b60405190815260200161022a565b610286610a1b565b61023b6103b8366004611a50565b610a2f565b6102866103cb366004611b86565b610acf565b6006546001600160a01b031661025b565b610394600d5481565b61023b610af9565b61039460095481565b610286610409366004611baf565b610b08565b610286610b13565b610286610424366004611be6565b610b59565b610286610437366004611c71565b610bd3565b61028661044a366004611b86565b610bea565b61023b61045d366004611a50565b610c13565b610394610470366004611a50565b600a6020526000908152604090205481565b61021e610490366004611d4d565b610d1b565b6102866104a3366004611b86565b610d49565b61021e6104b6366004611a85565b600b60209081526000928352604080842090915290825290205460ff1681565b600f5461025b906001600160a01b031681565b60006001600160e01b031982166380ac58cd60e01b148061051a57506001600160e01b03198216635b5e139f60e01b145b8061053557506301ffc9a760e01b6001600160e01b03198316145b92915050565b60606000805461054a90611d80565b80601f016020809104026020016040519081016040528092919081815260200182805461057690611d80565b80156105c35780601f10610598576101008083540402835291602001916105c3565b820191906000526020600020905b8154815290600101906020018083116105a657829003601f168201915b5050505050905090565b60006105d882610d87565b506000828152600460205260409020546001600160a01b0316610535565b610601828233610dc0565b5050565b60008061064784848080601f016020809104026020016040519081016040528093929190818152602001838380828437600092019190915250610dcd92505050565b90503330146106b05760405162461bcd60e51b815260206004820152602a60248201527f6f6e6c79207468697320636f6e74726163742063616e2063616c6c20746869736044820152692066756e6374696f6e2160b01b60648201526084015b60405180910390fd5b856001600160a01b03166106c3826109c8565b6001600160a01b0316146107065760405162461bcd60e51b815260206004820152600a6024820152694e6f74206f776e65722160b01b60448201526064016106a7565b6000818152600a602052604090205460021461075d5760405162461bcd60e51b81526020600482015260166024820152754e6f742074686520726967687420746f6b656e20322160501b60448201526064016106a7565b6000858152600e602052604090205460ff16156107bc5760405162461bcd60e51b815260206004820152601c60248201527f546f6b656e20616c7265616479207573656420746f20636c61696d210000000060448201526064016106a7565b6107c730878761097c565b6000858152600e602052604090819020805460ff19166001179055600f5490516335313c2160e11b81526001600160a01b03888116600483015290911690636a62784290602401600060405180830381600087803b15801561082857600080fd5b505af115801561083c573d6000803e3d6000fd5b50630a85bd0160e11b9a9950505050505050505050565b6001600160a01b03821661087d57604051633250574960e11b8152600060048201526024016106a7565b600061088a838333610e21565b9050836001600160a01b0316816001600160a01b0316146108d8576040516364283d7b60e01b81526001600160a01b03808616600483015260248201849052821660448201526064016106a7565b50505050565b6108e6610f1a565b600c805460ff1916905560405133907ff54453d15e2e6aee566733e6da03165ea58500408e802e05aa4e75f2408f59fe90600090a2565b3360009081526008602052604090205460ff166109725760405162461bcd60e51b8152602060048201526013602482015272139bdd08185b1b1bddd959081d1bc81b5a5b9d606a1b60448201526064016106a7565b6106018282610f47565b61099783838360405180602001604052806000815250610bd3565b505050565b6109a4610f1a565b6001600160a01b03166000908152600860205260409020805460ff19166001179055565b600061053582610d87565b60006001600160a01b0382166109ff576040516322718ad960e21b8152600060048201526024016106a7565b506001600160a01b031660009081526003602052604090205490565b610a23610f1a565b610a2d6000611182565b565b601081600f8110610a3f57600080fd5b018054909150610a4e90611d80565b80601f0160208091040260200160405190810160405280929190818152602001828054610a7a90611d80565b8015610ac75780601f10610a9c57610100808354040283529160200191610ac7565b820191906000526020600020905b815481529060010190602001808311610aaa57829003601f168201915b505050505081565b610ad7610f1a565b600f80546001600160a01b0319166001600160a01b0392909216919091179055565b60606001805461054a90611d80565b6106013383836111d4565b610b1b610f1a565b600c805460ff1916600117905542600d5560405133907f44bcce471802f9158ee4390426e4a931d186757cc50d302f6747504c17516d1290600090a2565b610b61610f1a565b60005b8181101561099757600160086000858585818110610b8457610b84611dba565b9050602002016020810190610b999190611b86565b6001600160a01b031681526020810191909152604001600020805460ff191691151591909117905580610bcb81611de6565b915050610b64565b610bde848484610853565b6108d884848484611273565b610bf2610f1a565b6001600160a01b03166000908152600860205260409020805460ff19169055565b60606000610c20836109c8565b6001600160a01b031603610c8e5760405162461bcd60e51b815260206004820152602f60248201527f4552433732314d657461646174613a2055524920717565727920666f72206e6f60448201526e3732bc34b9ba32b73a103a37b5b2b760891b60648201526084016106a7565b6000610c998361139c565b6000848152600a6020526040812054919250610cef610cb783611482565b610cc087611482565b610cc986611515565b604051602001610cdb93929190611e1b565b604051602081830303815290604052611515565b905080604051602001610d029190611f2d565b6040516020818303038152906040529350505050919050565b6001600160a01b03918216600090815260056020908152604080832093909416825291909152205460ff1690565b610d51610f1a565b6001600160a01b038116610d7b57604051631e4fbdf760e01b8152600060048201526024016106a7565b610d8481611182565b50565b6000818152600260205260408120546001600160a01b03168061053557604051637e27328960e01b8152600481018490526024016106a7565b6109978383836001611675565b6000602082511015610e195760405162461bcd60e51b8152602060048201526015602482015274746f55696e743235365f6f75744f66426f756e647360581b60448201526064016106a7565b506020015190565b6000828152600260205260408120546001600160a01b0390811690831615610e4e57610e4e81848661177b565b6001600160a01b03811615610e8c57610e6b600085600080611675565b6001600160a01b038116600090815260036020526040902080546000190190555b6001600160a01b03851615610ebb576001600160a01b0385166000908152600360205260409020805460010190555b60008481526002602052604080822080546001600160a01b0319166001600160a01b0389811691821790925591518793918516917fddf252ad1be2c89b69c2b068fc378daa952ba7f163c4a11628f55a4df523b3ef91a4949350505050565b6006546001600160a01b03163314610a2d5760405163118cdaa760e01b81523360048201526024016106a7565b600c5460ff16610f925760405162461bcd60e51b8152602060048201526016602482015275135a5b9d1a5b99c81a5cc81b9bdd08195b98589b195960521b60448201526064016106a7565b60075460405163f8f1147d60e01b81526001600160a01b038481166004830152600160248301529091169063f8f1147d90604401602060405180830381865afa158015610fe3573d6000803e3d6000fd5b505050506040513d601f19601f820116820180604052508101906110079190611f72565b6110665760405162461bcd60e51b815260206004820152602a60248201527f557365722061646472657373206973206e6f74207265676973746572656420696044820152696e20536561736f6e203160b01b60648201526084016106a7565b6001600160a01b0382166000908152600b6020908152604080832084845290915290205460ff16156110f55760405162461bcd60e51b815260206004820152603260248201527f5573657220616464726573732068617320616c7265616479206d696e74656420604482015271666f722074686973206368616c6c656e676560701b60648201526084016106a7565b6009805490600061110583611de6565b909155505060095461111783826117df565b6000818152600a602090815260408083208590556001600160a01b038616808452600b8352818420868552909252808320805460ff191660011790555184928492917fef633ead5fa8a224bb818380531535925c31239123ac0a6f54c9135616f054759190a4505050565b600680546001600160a01b038381166001600160a01b0319831681179093556040519116919082907f8be0079c531659141344cd1fd0a4f28419497f9722a3daafe3b4186f6b6457e090600090a35050565b6001600160a01b03821661120657604051630b61174360e31b81526001600160a01b03831660048201526024016106a7565b6001600160a01b03838116600081815260056020908152604080832094871680845294825291829020805460ff191686151590811790915591519182527f17307eab39ab6107e8899845ad3d59bd9653f200f220920489ca2b5937696c31910160405180910390a3505050565b6001600160a01b0383163b156108d857604051630a85bd0160e11b81526001600160a01b0384169063150b7a02906112b5903390889087908790600401611f8f565b6020604051808303816000875af19250505080156112f0575060408051601f3d908101601f191682019092526112ed91810190611fcc565b60015b611359573d80801561131e576040519150601f19603f3d011682016040523d82523d6000602084013e611323565b606091505b50805160000361135157604051633250574960e11b81526001600160a01b03851660048201526024016106a7565b805181602001fd5b6001600160e01b03198116630a85bd0160e11b1461139557604051633250574960e11b81526001600160a01b03851660048201526024016106a7565b5050505050565b6000818152600a6020526040812054606091601082600f81106113c1576113c1611dba565b0180546113cd90611d80565b80601f01602080910402602001604051908101604052809291908181526020018280546113f990611d80565b80156114465780601f1061141b57610100808354040283529160200191611446565b820191906000526020600020905b81548152906001019060200180831161142957829003601f168201915b50505050509050808161145884611482565b60405160200161146a93929190611fe9565b60405160208183030381529060405292505050919050565b6060600061148f836117f9565b600101905060008167ffffffffffffffff8111156114af576114af611c5b565b6040519080825280601f01601f1916602001820160405280156114d9576020820181803683370190505b5090508181016020015b600019016f181899199a1a9b1b9c1cb0b131b232b360811b600a86061a8153600a85049450846114e357509392505050565b6060815160000361153457505060408051602081019091526000815290565b6000604051806060016040528060408152602001614217604091399050600060038451600261156391906141ca565b61156d91906141dd565b6115789060046141ff565b67ffffffffffffffff81111561159057611590611c5b565b6040519080825280601f01601f1916602001820160405280156115ba576020820181803683370190505b50905060018201602082018586518701602081018051600082525b82841015611630576003840193508351603f8160121c168701518653600186019550603f81600c1c168701518653600186019550603f8160061c168701518653600186019550603f81168701518653506001850194506115d5565b905250508551600390066001811461164f57600281146116625761166a565b603d6001830353603d600283035361166a565b603d60018303535b509195945050505050565b808061168957506001600160a01b03821615155b1561174b57600061169984610d87565b90506001600160a01b038316158015906116c55750826001600160a01b0316816001600160a01b031614155b80156116d857506116d68184610d1b565b155b156117015760405163a9fbf51f60e01b81526001600160a01b03841660048201526024016106a7565b81156117495783856001600160a01b0316826001600160a01b03167f8c5be1e5ebec7d5bd14f71427d1e84f3dd0314c0f7b2291e5b200ac8c7c3b92560405160405180910390a45b505b5050600090815260046020526040902080546001600160a01b0319166001600160a01b0392909216919091179055565b6117868383836118d1565b610997576001600160a01b0383166117b457604051637e27328960e01b8152600481018290526024016106a7565b60405163177e802f60e01b81526001600160a01b0383166004820152602481018290526044016106a7565b610601828260405180602001604052806000815250611937565b60008072184f03e93ff9f4daa797ed6e38ed64bf6a1f0160401b83106118385772184f03e93ff9f4daa797ed6e38ed64bf6a1f0160401b830492506040015b6d04ee2d6d415b85acef81000000008310611864576d04ee2d6d415b85acef8100000000830492506020015b662386f26fc10000831061188257662386f26fc10000830492506010015b6305f5e100831061189a576305f5e100830492506008015b61271083106118ae57612710830492506004015b606483106118c0576064830492506002015b600a83106105355760010192915050565b60006001600160a01b0383161580159061192f5750826001600160a01b0316846001600160a01b0316148061190b575061190b8484610d1b565b8061192f57506000828152600460205260409020546001600160a01b038481169116145b949350505050565b611941838361194e565b6109976000848484611273565b6001600160a01b03821661197857604051633250574960e11b8152600060048201526024016106a7565b600061198683836000610e21565b90506001600160a01b03811615610997576040516339e3563760e11b8152600060048201526024016106a7565b6001600160e01b031981168114610d8457600080fd5b6000602082840312156119db57600080fd5b81356119e6816119b3565b9392505050565b60005b83811015611a085781810151838201526020016119f0565b50506000910152565b60008151808452611a298160208601602086016119ed565b601f01601f19169290920160200192915050565b6020815260006119e66020830184611a11565b600060208284031215611a6257600080fd5b5035919050565b80356001600160a01b0381168114611a8057600080fd5b919050565b60008060408385031215611a9857600080fd5b611aa183611a69565b946020939093013593505050565b600080600080600060808688031215611ac757600080fd5b611ad086611a69565b9450611ade60208701611a69565b935060408601359250606086013567ffffffffffffffff80821115611b0257600080fd5b818801915088601f830112611b1657600080fd5b813581811115611b2557600080fd5b896020828501011115611b3757600080fd5b9699959850939650602001949392505050565b600080600060608486031215611b5f57600080fd5b611b6884611a69565b9250611b7660208501611a69565b9150604084013590509250925092565b600060208284031215611b9857600080fd5b6119e682611a69565b8015158114610d8457600080fd5b60008060408385031215611bc257600080fd5b611bcb83611a69565b91506020830135611bdb81611ba1565b809150509250929050565b60008060208385031215611bf957600080fd5b823567ffffffffffffffff80821115611c1157600080fd5b818501915085601f830112611c2557600080fd5b813581811115611c3457600080fd5b8660208260051b8501011115611c4957600080fd5b60209290920196919550909350505050565b634e487b7160e01b600052604160045260246000fd5b60008060008060808587031215611c8757600080fd5b611c9085611a69565b9350611c9e60208601611a69565b925060408501359150606085013567ffffffffffffffff80821115611cc257600080fd5b818701915087601f830112611cd657600080fd5b813581811115611ce857611ce8611c5b565b604051601f8201601f19908116603f01168101908382118183101715611d1057611d10611c5b565b816040528281528a6020848701011115611d2957600080fd5b82602086016020830137600060208483010152809550505050505092959194509250565b60008060408385031215611d6057600080fd5b611d6983611a69565b9150611d7760208401611a69565b90509250929050565b600181811c90821680611d9457607f821691505b602082108103611db457634e487b7160e01b600052602260045260246000fd5b50919050565b634e487b7160e01b600052603260045260246000fd5b634e487b7160e01b600052601160045260246000fd5b600060018201611df857611df8611dd0565b5060010190565b60008151611e118185602086016119ed565b9290920192915050565b747b226e616d65223a20224368616c6c656e6765202360581b81528351600090611e4c8160158501602089016119ed565b70010333630b390143a37b5b2b724b2101e9607d1b6015918401918201528451611e7d8160268401602089016119ed565b602960f81b602692909101918201527f222c20226465736372697074696f6e223a202241204e465420666c616720666f60278201527f722074686520427569646c477569646c20435446222c2022696d616765223a2060478201527f22646174613a696d6167652f7376672b786d6c3b6261736536342c000000000060678201528351611f118160828401602088016119ed565b61227d60f01b6082929091019182015260840195945050505050565b7f646174613a6170706c69636174696f6e2f6a736f6e3b6261736536342c000000815260008251611f6581601d8501602087016119ed565b91909101601d0192915050565b600060208284031215611f8457600080fd5b81516119e681611ba1565b6001600160a01b0385811682528416602082015260408101839052608060608201819052600090611fc290830184611a11565b9695505050505050565b600060208284031215611fde57600080fd5b81516119e6816119b3565b7f3c7376672066696c6c3d226e6f6e652220786d6c6e733d22687474703a2f2f7781527f77772e77332e6f72672f323030302f737667222076696577426f783d2230203060208201527f2034363120353733223e3c706174682066696c6c2d72756c653d226576656e6f60408201527f64642220636c69702d72756c653d226576656e6f64642220643d226d3239322e60608201527f3239362031312e3338382d33342e3737342d392e3331372d322e303720372e3760808201527f32372d372e3732382d322e30372d362e3938382032362e303820372e3732382060a08201527f322e30372d36372e383131203235332e30373320372e37323720322e3037203260c08201527f392e3736352d3131312e3038312031392e33313820352e3137362d32392e373660e08201527f34203131312e30383120372e37323720322e3037312033312e3833352d3131386101008201527f2e38303920382e36393320322e33332d322e303720372e3732372032352e31316101208201527f3420362e37323920322e3037312d372e3732372032342e31343820362e3437206101408201527f322e30372d372e3732372031372e33383720342e36353920322e30372d372e376101608201527f32382033322e38343220382e382d322e30373120372e3732372031372e3338376101808201527f20342e3635392d322e30373120372e3732382033312e38373620382e353431206101a08201527f362e3732392d32352e3131342d372e3732372d322e30373120382e382d33322e6101c08201527f3834312d372e3732382d322e30373120362e3938382d32362e303820372e37326101e08201527f3820322e30373120342e3931372d31382e3335332031302e36323620322e38346102008201527f3720322e30372d372e37323720372e37323820322e303720342e342d31362e346102208201527f322d31362e3432312d342e3420322e30372d372e3732382d31372e3338362d346102408201527f2e36353920322e30372d372e3732372d34392e3236322d31332e322d322e30376102608201527f3120372e3732382d32362e30382d362e3938392d322e303720372e3732382d316102808201527f362e3432312d342e342d322e303720372e3732372d31372e3338372d342e36356102a08201527f3920322e3037312d372e3732372d32352e3131352d362e373320322e3037312d6102c08201527f372e37323720372e37323720322e30373120362e3938392d32362e30382d372e6102e08201527f3732382d322e303720322e3037312d372e3732385a6d2d322e30373120372e376103008201527f32372d362e3938382032362e30382d33342e3737332d392e33313720362e39386103208201527f382d32362e30382033342e37373320392e3331375a4d3330342e32312036372e6103408201527f33386c2d32352e3131342d362e3732392d32392e373634203131312e303832206103608201527f382e36393320322e3332392d322e30373120372e3732382032352e31313520366103808201527f2e37323920322e30372d372e3732382032342e31343820362e34373120322e306103a08201527f37312d372e3732382031372e33383620342e36353920322e3037312d372e37326103c08201527f372033322e38343120382e382d322e303720372e3732372031372e33383720346103e08201527f2e3635392d322e30373120372e3732372032342e31343820362e34373120342e6104008201527f3635392d31372e3338372d372e3732372d322e30373120382e3739392d33322e6104208201527f3834312d372e3732372d322e30373120362e3938382d32362e303820372e37326104408201527f3720322e30373120342e3931382d31382e33353320372e37323720322e3037316104608201527f20322e3037312d372e3732372031302e36323520322e38343720322e33332d386104808201527f2e3639342d382e3639342d322e33323920322e3037312d372e3732384c3431356104a08201527f2e34332038382e396c322e3037312d372e3732382d34392e3236332d31332e326104c08201527f2d322e303720372e3732382d32362e30382d362e3938382d322e30373120372e6104e08201527f3732372d31362e34322d342e342d322e30373120372e3732382d31372e3338376105008201527f2d342e36353920322e3037312d372e3732385a6d2d36342e363736203131302e6105208201527f30312033332e3930352d3132362e3533372d31392e3331382d352e3137362d336105408201527f332e393036203132362e3533362031392e33313920352e3137375a222066696c6105608201527f6c3d2223323932353234222f3e3c7061746820643d226d3239302e32323520316105808201527f392e3131352d362e3938382032362e30382d33342e3737332d392e33313720366105a08201527f2e3938382d32362e30382033342e37373320392e3331375a222066696c6c3d226105c08201527f23414338453443222f3e3c7061746820643d226d3235342e3132312034352e366105e08201527f37362031392e33313820352e3137362d33332e393035203132362e3533372d316106008201527f392e3331392d352e3137372033332e3930362d3132362e3533365a222066696c61062082015262361e9160e91b61064082015260006141c1612bb8612ba4612b9e612b75612a8e612a886127ae6106438a018d611dff565b7f222f3e3c7061746820643d226d3231382e313435203137392e39342031392e3381527f313820352e3137362d32392e373634203131312e3038312d31392e3331392d3560208201527f2e3137362032392e3736352d3131312e3038315a222066696c6c3d222341413860408201527f423438222f3e3c7061746820643d226d3431372e3530312038312e3137312d3460608201527f392e3236332d31332e322d322e303720372e3732382d32362e30382d362e393860808201527f382d322e30373120372e3732372d31362e34322d342e342d322e30373120372e60a08201527f3732382d31372e3338372d342e36353920322e3037312d372e3732382d32352e60c08201527f3131342d362e3732392d32392e373634203131312e30383220382e363933203260e08201527f2e3332392d322e30373120372e3732382032352e31313520362e37323920322e6101008201527f30372d372e3732382032342e31343820362e34373120322e3037312d372e37326101208201527f382031372e33383620342e36353920322e3037312d372e3732372033322e38346101408201527f3120382e382d322e303720372e3732372031372e33383720342e3635392d322e6101608201527f30373120372e3732372032342e31343820362e34373120342e3635392d31372e6101808201527f3338372d372e3732372d322e30373120382e3739392d33322e3834312d372e376101a08201527f32372d322e30373120362e3938382d32362e303820372e37323720322e3037316101c08201527f20342e3931382d31382e33353320372e37323720322e30373120322e3037312d6101e08201527f372e3732372031302e36323520322e38343720322e33332d382e3639342d382e6102008201527f3639342d322e33323920322e3037312d372e3732384c3431352e34332038382e610220820152751cb61917181b98969b971b991c2d11103334b6361e9160511b6102408201526102560190565b8a611dff565b7f222f3e3c74657874207472616e73666f726d3d22726f74617465283135202d3181527f35372e32313420313237322e31363729222066696c6c3d22236666662220786d60208201527f6c3a73706163653d22707265736572766522207374796c653d2277686974652d60408201527f73706163653a7072652220666f6e742d66616d696c793d22436f75726965722060608201527f4e65772220666f6e742d73697a653d2238302220666f6e742d7765696768743d60808201527f22626f6c642220746578742d616e63686f723d226d6964646c65223e0000000060a082015260bc0190565b7f3c747370616e20783d2232302220793d2236322e353738223e00000000000000815260190190565b86611dff565b671e17ba39b830b71f60c11b815260080190565b7f3c2f746578743e3c706174682066696c6c3d22234441453846462220643d224d81527f3134372e3932362031373768387631366838763136683876386838763137683860208201527f763136683876313668387631356838763968387631366838763136683876386860408201527f38763137683876313668387638682d387638682d387638682d31367638682d3860608201527f7638682d31367638682d387638682d31367638682d387638682d31367638682d60808201527f3234762d38682d3136762d38682d38762d38682d3136762d38682d38762d386860a08201527f2d3136762d38682d38762d38682d3136762d38682d38762d38682d38762d386860c08201527f38762d31366838762d31376838762d386838762d31366838762d31366838762d60e08201527f396838762d31356838762d31366838762d31366838762d31376838762d3868386101008201527f762d31366838762d31366838762d313668387631365a222f3e3c7061746820666101208201527f696c6c3d22234441453846462220643d224d32372e39323620333935763868386101408201527f76386838763136683876386838763868387631366838763968387631366838766101608201527f38683876313668387638683876313668387638683876313668387631336838766101808201527f2d31336838762d31366838762d386838762d31366838762d386838762d3136686101a08201527f38762d386838762d31366838762d396838762d31366838762d386838762d38686101c08201527f38762d31366838762d386838762d38682d387638682d31367638682d387638686101e08201527f2d31367638682d387638682d31367638682d387638682d31367638682d3876396102008201527f682d3234762d39682d38762d38682d3136762d38682d38762d38682d3136762d6102208201527f38682d38762d38682d3136762d38682d38762d38682d3136762d38682d385a226102408201527f2f3e3c706174682066696c6c3d2223383038434645222066696c6c2d72756c656102608201527f3d226576656e6f64642220643d224d3132372e39323620343437762d38682d316102808201527f36762d38682d38762d38682d3136762d38682d38762d38682d3136762d38682d6102a08201527f38762d38682d3136762d38682d38762d38682d38762d31366838762d313668386102c08201527f762d31376838762d386838762d31366838762d31366838762d396838762d31356102e08201527f6838762d31366838762d31366838762d31376838762d386838762d31366838766103008201527f2d31366838762d313668313676313668387631366838763136683876386838766103208201527f31376838763136683876313668387631356838763968387631366838763136686103408201527f387638683876313768387631366838763136682d387638682d387638682d31366103608201527f7638682d387638682d31367638682d387638682d31367638682d3876386838766103808201527f2d38683136762d386838762d38683136762d386838762d38683136762d3868316103a08201527f36763136682d387638682d38763136682d387638682d387638682d38763136686103c08201527f2d387639682d38763136682d387638682d38763136682d387638682d387631366103e08201527f682d387638682d38763136682d38763133682d3136762d3133682d38762d31366104008201527f682d38762d38682d38762d3136682d38762d38682d38762d3136682d38762d386104208201527f682d38762d3136682d38762d39682d38762d3136682d38762d38682d38762d386104408201527f682d38762d3136682d38762d38682d38762d31366831367638683136763868386104608201527f76386831367638683876386831367638683876386831365a6d32302d323836766104808201527f31366838763136683876313668387638683876313768387631366838763136686104a08201527f38763135683876396838763136683876313668387638683876313768387631366104c08201527f68387638682d387638682d387638682d31367638682d387638682d31367638686104e08201527f2d387638682d31367638682d387638682d31367638682d3234762d38682d31366105008201527f762d38682d38762d38682d3136762d38682d38762d38682d3136762d38682d386105208201527f762d38682d3136762d38682d38762d38682d38762d386838762d31366838762d6105408201527f31376838762d386838762d31366838762d31366838762d396838762d313568386105608201527f762d31366838762d31366838762d31376838762d386838762d31366838762d316105808201527f366838762d313668385a6d313220323836762d386831367638682d31365a6d2d6105a08201527f333220306833327638682d387639682d3136762d39682d38762d385a6d3132206105c08201527f313232762d3133682d38762d3136682d38762d38682d38762d3136682d38762d6105e08201527f38682d38762d3136682d38762d38682d38762d3136682d38762d39682d38762d6106008201527f3136682d38762d38682d38762d38682d38762d3136682d38762d3868313676386106208201527f68387638683136763868387638683136763868387638683136763868387639686106408201527f3234762d396838762d38683136762d386838762d38683136762d386838762d386106608201527f683136762d386838762d386831367638682d38763136682d387638682d3876386106808201527f682d38763136682d387639682d38763136682d387638682d38763136682d38766106a08201527f38682d38763136682d387638682d38763136682d38763133682d385a6d3131326106c08201527f2d313636762d3868387638682d385a6d2d3231362030682d38762d38683876386106e08201527f5a2220636c69702d72756c653d226576656e6f6464222f3e3c706174682066696107008201527f6c6c3d22233030302220643d224d31332e373031203335352e343136203020336107208201527f34372e3634386c362e3635382d31312e37343420312e39353720312e313120316107408201527f2e31312d312e39353820332e39313520322e32322d312e313120312e393537206107608201527f312e39353720312e313120312e31312d312e39353820332e39313520322e32326107808201527f2d312e313120312e39353720312e39353720312e31312d362e3635382031312e6107a08201527f3734345a6d2d352e36312d382e33353420332e33332d352e3837322d332e39316107c08201527f352d322e3231392d332e333320352e38373220332e39313520322e3231395a6d6107e08201527f352e38373220332e33323920332e33332d352e3837322d332e3931352d322e326108008201527f31392d332e333320352e38373220332e39313520322e3231395a4d32332e38316108208201527f32203333372e3538326c2d312e3935382d312e31312d312e313120312e3935386108408201527f2d372e3832392d342e34333920322e32322d332e39313520372e38323920342e6108608201527f34333920332e3332392d352e3837322d372e38332d342e34333920322e32322d6108808201527f332e39313420392e37383720352e3534382d362e3635382031312e3734345a4d6108a08201527f32322e303535203331332e3330386c2d312e3935382d312e313120322e32322d6108c08201527f332e39313420312e39353720312e3130392d322e323220332e3931355a6d392e6108e08201527f3532342031302e3537332d312e3935372d312e313120322e32322d332e3931356109008201527f2d352e3837332d332e3332392d312e313120312e3935382d312e3935372d312e6109208201527f313120332e33332d352e38373220372e38323820342e34333920322e32322d336109408201527f2e39313520312e39353720312e31312d362e3635382031312e3734345a4d34306109608201527f2e343536203330382e3232326c2d312e3935372d312e31312d312e313120312e6109808201527f3935382d352e3837322d332e33323920312e31312d312e3935382d312e3935376109a08201527f2d312e31303920342e3433382d372e38332d332e3931342d322e32313920322e6109c08201527f32322d332e3931352031332e3720372e3736382d362e3635372031312e3734346109e08201527f5a6d2d2e3834372d332e30363720332e3332392d352e3837322d352e3837322d610a008201527f332e3332392d332e333320352e38373220352e38373320332e3332395a4d3438610a208201527f2e353332203239332e3937376c2d312e3935372d312e31303920322e32322d33610a408201527f2e3931352d392e3738382d352e3534382d312e313120312e3935372d312e3935610a608201527f362d312e313120332e3332382d352e3837322031312e37343520362e36353820610a808201527f322e3231392d332e39313420312e39353720312e3130392d362e363538203131610aa08201527f2e3734345a4d35382e343538203237362e34376c2d312e3935382d312e31312d610ac08201527f312e313120312e3935372d312e3935372d312e3130392d312e313120312e3935610ae08201527f372d352e3837312d332e33323920312e31312d312e3935372d312e3935382d31610b008201527f2e313120312e31312d312e3935372d312e3935382d312e313120352e3534392d610b208201527f392e37383620312e39353720312e3130392d342e34333920372e383320312e39610b408201527f353820312e3130392d312e313120312e39353820352e38373220332e33323820610b608201527f312e31312d312e39353720312e39353720312e313120322e32322d332e393135610b808201527f2d332e3931352d322e3231392d312e313120312e3935372d312e3935372d312e610ba08201527f31303920332e3332392d352e38373220372e38323920342e3433382d352e3534610bc08201527f3820392e3738375a4d36362e343732203236322e3333346c2d312e3935372d31610be08201527f2e31312d312e313120312e3935372d372e38332d342e34333820322e32322d33610c008201527f2e39313520372e383320342e34333920332e3332382d352e3837322d372e3833610c208201527f2d342e34333920322e32322d332e39313520392e37383720352e3534392d362e610c408201527f3635382031312e3734345a4d36342e383338203233372e3834326c2d312e3935610c608201527f372d312e313120322e32322d332e39313420312e39353720312e3130392d322e610c808201527f323220332e3931355a6d392e3532352031302e3537332d312e3935372d312e31610ca08201527f3120322e3231392d332e3931352d352e3837322d332e3332392d312e31312031610cc08201527f2e3935382d312e3935372d312e313120332e3332392d352e38373220372e3833610ce08201527f20342e34333920322e3231392d332e39313520312e39353720312e31312d362e610d008201527f3635382031312e3734345a4d38332e3234203233322e3735366c2d312e393537610d208201527f2d312e31312d312e313120312e3935382d352e3837322d332e33323920312e31610d408201527f312d312e3935382d312e3935372d312e31303920342e3433382d372e38332d33610d608201527f2e3931352d322e32313920322e32322d332e3931352031332e37303120372e37610d808201527f36382d362e3635382031312e3734345a6d2d2e3834382d332e30363720332e33610da08201527f332d352e3837322d352e3837332d332e3332392d332e33323920352e38373220610dc08201527f352e38373220332e3332395a4d39312e313331203231382e3833376c2d312e39610de08201527f35372d312e31303920322e3231392d332e3931352d392e3738372d352e353438610e008201527f2d312e313120312e3935372d312e3935372d312e313120332e33332d352e3837610e208201527f322031312e37343320362e36353820322e32322d332e39313420312e39353720610e408201527f312e3130392d362e3635382031312e3734345a4d3130342e363934203139342e610e608201527f3931346c2d312e3935382d312e3130392d312e31303920312e3935372d312e39610e808201527f35382d312e31312d312e313120312e3935382d352e3837312d332e3332392031610ea08201527f2e31312d312e3935382d312e3935382d312e31303920312e31312d312e393538610ec08201527f2d312e3935382d312e31303920342e3433392d372e383320312e39353720312e610ee08201527f313120312e31312d312e39353720312e39353720312e3130392d322e32322033610f008201527f2e3931352d312e3935362d312e31312d322e323220332e39313520312e393538610f208201527f20312e31312d312e313120312e39353720352e38373220332e33323920312e31610f408201527f312d312e39353720312e39353720312e31303920322e3231392d332e3931342d610f608201527f312e3935372d312e313120322e3231392d332e39313520312e39353820312e31610f808201527f312d312e313120312e39353720312e39353720312e31312d342e34333820372e610fa08201527f3832395a4d3131332e353731203137392e3235366c2d31312e3734342d362e36610fc08201527f35382d322e323220332e3931342d312e3935372d312e31303920362e3635382d610fe08201527f31312e37343420312e39353820312e3130392d322e323220332e3931352031316110008201527f2e37343420362e3635382d322e32313920332e3931355a4d3131392e313139206110208201527f3136392e3436396c2d31332e3730312d372e3736384c3131332e3138352031346110408201527f386c312e39353820312e31312d352e35343920392e37383620332e39313520326110608201527f2e323220342e3433392d372e383320312e39353720312e31312d342e343339206110808201527f372e38323920352e38373220332e3332392d322e32313920332e3931355a222f6110a08201527f3e3c706174682066696c6c3d22233830384346452220643d224d3134312e33336110c08201527f3320323633763438682d31302e363636763136682d352e33333476352e3333336110e08201527f682d31302e36363656333237682d352e333334762d31364838387638306833376111008201527f2e333333762d33372e33333368352e333334762d352e333334483133365633346111208201527f3368313676352e33333368352e33333376352e33333468352e333334563339316111408201527f48323030762d3830682d32312e333333763136682d352e33333476352e3333336111608201527f682d31302e36363656333237682d352e333334762d3136682d31302e363636766111808201527f2d32312e333333683136563239356831302e363636762d352e33333368352e336111a08201527f3334762d352e33333448313834762d31302e363636682d352e333333563237396111c08201527f48313638762d352e333333682d352e333333762d352e333334483135325632366111e08201527219b4169898171b1b1bad11179f1e17b9bb339f60691b6112008201526112130190565b95945050505050565b8082018082111561053557610535611dd0565b6000826141fa57634e487b7160e01b600052601260045260246000fd5b500490565b808202811582820484141761053557610535611dd056fe4142434445464748494a4b4c4d4e4f505152535455565758595a6162636465666768696a6b6c6d6e6f707172737475767778797a303132333435363738392b2fa2646970667358221220ec4213eba980ad457fd6196ad2147f04856b8700d1ebacb6b88f9dc05b4aee1664736f6c63430008140033",
  "devdoc": {
    "errors": {
      "ERC721IncorrectOwner(address,uint256,address)": [
        {
          "details": "Indicates an error related to the ownership over a particular token. Used in transfers.",
          "params": {
            "owner": "Address of the current owner of a token.",
            "sender": "Address whose tokens are being transferred.",
            "tokenId": "Identifier number of a token."
          }
        }
      ],
      "ERC721InsufficientApproval(address,uint256)": [
        {
          "details": "Indicates a failure with the `operator`s approval. Used in transfers.",
          "params": {
            "operator": "Address that may be allowed to operate on tokens without being their owner.",
            "tokenId": "Identifier number of a token."
          }
        }
      ],
      "ERC721InvalidApprover(address)": [
        {
          "details": "Indicates a failure with the `approver` of a token to be approved. Used in approvals.",
          "params": {
            "approver": "Address initiating an approval operation."
          }
        }
      ],
      "ERC721InvalidOperator(address)": [
        {
          "details": "Indicates a failure with the `operator` to be approved. Used in approvals.",
          "params": {
            "operator": "Address that may be allowed to operate on tokens without being their owner."
          }
        }
      ],
      "ERC721InvalidOwner(address)": [
        {
          "details": "Indicates that an address can't be an owner. For example, `address(0)` is a forbidden owner in EIP-20. Used in balance queries.",
          "params": {
            "owner": "Address of the current owner of a token."
          }
        }
      ],
      "ERC721InvalidReceiver(address)": [
        {
          "details": "Indicates a failure with the token `receiver`. Used in transfers.",
          "params": {
            "receiver": "Address to which tokens are being transferred."
          }
        }
      ],
      "ERC721InvalidSender(address)": [
        {
          "details": "Indicates a failure with the token `sender`. Used in transfers.",
          "params": {
            "sender": "Address whose tokens are being transferred."
          }
        }
      ],
      "ERC721NonexistentToken(uint256)": [
        {
          "details": "Indicates a `tokenId` whose `owner` is the zero address.",
          "params": {
            "tokenId": "Identifier number of a token."
          }
        }
      ],
      "OwnableInvalidOwner(address)": [
        {
          "details": "The owner is not a valid owner account. (eg. `address(0)`)"
        }
      ],
      "OwnableUnauthorizedAccount(address)": [
        {
          "details": "The caller account is not authorized to perform an operation."
        }
      ]
    },
    "events": {
      "Approval(address,address,uint256)": {
        "details": "Emitted when `owner` enables `approved` to manage the `tokenId` token."
      },
      "ApprovalForAll(address,address,bool)": {
        "details": "Emitted when `owner` enables or disables (`approved`) `operator` to manage all of its assets."
      },
      "Transfer(address,address,uint256)": {
        "details": "Emitted when `tokenId` token is transferred from `from` to `to`."
      }
    },
    "kind": "dev",
    "methods": {
      "approve(address,uint256)": {
        "details": "See {IERC721-approve}."
      },
      "balanceOf(address)": {
        "details": "See {IERC721-balanceOf}."
      },
      "getApproved(uint256)": {
        "details": "See {IERC721-getApproved}."
      },
      "isApprovedForAll(address,address)": {
        "details": "See {IERC721-isApprovedForAll}."
      },
      "name()": {
        "details": "See {IERC721Metadata-name}."
      },
      "owner()": {
        "details": "Returns the address of the current owner."
      },
      "ownerOf(uint256)": {
        "details": "See {IERC721-ownerOf}."
      },
      "renounceOwnership()": {
        "details": "Leaves the contract without owner. It will not be possible to call `onlyOwner` functions. Can only be called by the current owner. NOTE: Renouncing ownership will leave the contract without an owner, thereby disabling any functionality that is only available to the owner."
      },
      "safeTransferFrom(address,address,uint256)": {
        "details": "See {IERC721-safeTransferFrom}."
      },
      "safeTransferFrom(address,address,uint256,bytes)": {
        "details": "See {IERC721-safeTransferFrom}."
      },
      "setApprovalForAll(address,bool)": {
        "details": "See {IERC721-setApprovalForAll}."
      },
      "supportsInterface(bytes4)": {
        "details": "See {IERC165-supportsInterface}."
      },
      "symbol()": {
        "details": "See {IERC721Metadata-symbol}."
      },
      "tokenURI(uint256)": {
        "details": "See {IERC721Metadata-tokenURI}."
      },
      "transferFrom(address,address,uint256)": {
        "details": "See {IERC721-transferFrom}."
      },
      "transferOwnership(address)": {
        "details": "Transfers ownership of the contract to a new account (`newOwner`). Can only be called by the current owner."
      }
    },
    "version": 1
  },
  "userdoc": {
    "kind": "user",
    "methods": {},
    "version": 1
  },
  "storageLayout": {
    "storage": [
      {
        "astId": 968,
        "contract": "contracts/S2/Season2NFTFlags.sol:Season2NFTFlags",
        "label": "_name",
        "offset": 0,
        "slot": "0",
        "type": "t_string_storage"
      },
      {
        "astId": 970,
        "contract": "contracts/S2/Season2NFTFlags.sol:Season2NFTFlags",
        "label": "_symbol",
        "offset": 0,
        "slot": "1",
        "type": "t_string_storage"
      },
      {
        "astId": 974,
        "contract": "contracts/S2/Season2NFTFlags.sol:Season2NFTFlags",
        "label": "_owners",
        "offset": 0,
        "slot": "2",
        "type": "t_mapping(t_uint256,t_address)"
      },
      {
        "astId": 978,
        "contract": "contracts/S2/Season2NFTFlags.sol:Season2NFTFlags",
        "label": "_balances",
        "offset": 0,
        "slot": "3",
        "type": "t_mapping(t_address,t_uint256)"
      },
      {
        "astId": 982,
        "contract": "contracts/S2/Season2NFTFlags.sol:Season2NFTFlags",
        "label": "_tokenApprovals",
        "offset": 0,
        "slot": "4",
        "type": "t_mapping(t_uint256,t_address)"
      },
      {
        "astId": 988,
        "contract": "contracts/S2/Season2NFTFlags.sol:Season2NFTFlags",
        "label": "_operatorApprovals",
        "offset": 0,
        "slot": "5",
        "type": "t_mapping(t_address,t_mapping(t_address,t_bool))"
      },
      {
        "astId": 8,
        "contract": "contracts/S2/Season2NFTFlags.sol:Season2NFTFlags",
        "label": "_owner",
        "offset": 0,
        "slot": "6",
        "type": "t_address"
      },
      {
        "astId": 8312,
        "contract": "contracts/S2/Season2NFTFlags.sol:Season2NFTFlags",
        "label": "season1NFTFlags",
        "offset": 0,
        "slot": "7",
        "type": "t_address"
      },
      {
        "astId": 8316,
        "contract": "contracts/S2/Season2NFTFlags.sol:Season2NFTFlags",
        "label": "allowedMinters",
        "offset": 0,
        "slot": "8",
        "type": "t_mapping(t_address,t_bool)"
      },
      {
        "astId": 8318,
        "contract": "contracts/S2/Season2NFTFlags.sol:Season2NFTFlags",
        "label": "tokenIdCounter",
        "offset": 0,
        "slot": "9",
        "type": "t_uint256"
      },
      {
        "astId": 8322,
        "contract": "contracts/S2/Season2NFTFlags.sol:Season2NFTFlags",
        "label": "tokenIdToChallengeId",
        "offset": 0,
        "slot": "10",
        "type": "t_mapping(t_uint256,t_uint256)"
      },
      {
        "astId": 8328,
        "contract": "contracts/S2/Season2NFTFlags.sol:Season2NFTFlags",
        "label": "hasMinted",
        "offset": 0,
        "slot": "11",
        "type": "t_mapping(t_address,t_mapping(t_uint256,t_bool))"
      },
      {
        "astId": 8331,
        "contract": "contracts/S2/Season2NFTFlags.sol:Season2NFTFlags",
        "label": "enabled",
        "offset": 0,
        "slot": "12",
        "type": "t_bool"
      },
      {
        "astId": 8333,
        "contract": "contracts/S2/Season2NFTFlags.sol:Season2NFTFlags",
        "label": "enabledAt",
        "offset": 0,
        "slot": "13",
        "type": "t_uint256"
      },
      {
        "astId": 8337,
        "contract": "contracts/S2/Season2NFTFlags.sol:Season2NFTFlags",
        "label": "tokensClaimed",
        "offset": 0,
        "slot": "14",
        "type": "t_mapping(t_uint256,t_bool)"
      },
      {
        "astId": 8339,
        "contract": "contracts/S2/Season2NFTFlags.sol:Season2NFTFlags",
        "label": "goldTokenAddress",
        "offset": 0,
        "slot": "15",
        "type": "t_address"
      },
      {
        "astId": 8359,
        "contract": "contracts/S2/Season2NFTFlags.sol:Season2NFTFlags",
        "label": "flagColors",
        "offset": 0,
        "slot": "16",
        "type": "t_array(t_string_storage)15_storage"
      }
    ],
    "types": {
      "t_address": {
        "encoding": "inplace",
        "label": "address",
        "numberOfBytes": "20"
      },
      "t_array(t_string_storage)15_storage": {
        "base": "t_string_storage",
        "encoding": "inplace",
        "label": "string[15]",
        "numberOfBytes": "480"
      },
      "t_bool": {
        "encoding": "inplace",
        "label": "bool",
        "numberOfBytes": "1"
      },
      "t_mapping(t_address,t_bool)": {
        "encoding": "mapping",
        "key": "t_address",
        "label": "mapping(address => bool)",
        "numberOfBytes": "32",
        "value": "t_bool"
      },
      "t_mapping(t_address,t_mapping(t_address,t_bool))": {
        "encoding": "mapping",
        "key": "t_address",
        "label": "mapping(address => mapping(address => bool))",
        "numberOfBytes": "32",
        "value": "t_mapping(t_address,t_bool)"
      },
      "t_mapping(t_address,t_mapping(t_uint256,t_bool))": {
        "encoding": "mapping",
        "key": "t_address",
        "label": "mapping(address => mapping(uint256 => bool))",
        "numberOfBytes": "32",
        "value": "t_mapping(t_uint256,t_bool)"
      },
      "t_mapping(t_address,t_uint256)": {
        "encoding": "mapping",
        "key": "t_address",
        "label": "mapping(address => uint256)",
        "numberOfBytes": "32",
        "value": "t_uint256"
      },
      "t_mapping(t_uint256,t_address)": {
        "encoding": "mapping",
        "key": "t_uint256",
        "label": "mapping(uint256 => address)",
        "numberOfBytes": "32",
        "value": "t_address"
      },
      "t_mapping(t_uint256,t_bool)": {
        "encoding": "mapping",
        "key": "t_uint256",
        "label": "mapping(uint256 => bool)",
        "numberOfBytes": "32",
        "value": "t_bool"
      },
      "t_mapping(t_uint256,t_uint256)": {
        "encoding": "mapping",
        "key": "t_uint256",
        "label": "mapping(uint256 => uint256)",
        "numberOfBytes": "32",
        "value": "t_uint256"
      },
      "t_string_storage": {
        "encoding": "bytes",
        "label": "string",
        "numberOfBytes": "32"
      },
      "t_uint256": {
        "encoding": "inplace",
        "label": "uint256",
        "numberOfBytes": "32"
      }
    }
  }
}