{
  "address": "0xB73C1Ef69DE38ba3E6208e6748965CB9B4bdc43B",
  "abi": [
    {
      "inputs": [
        {
          "internalType": "address",
          "name": "_season1Challenge5",
          "type": "address"
        }
      ],
      "stateMutability": "nonpayable",
      "type": "constructor"
    },
    {
      "stateMutability": "nonpayable",
      "type": "fallback"
    },
    {
      "inputs": [],
      "name": "claim10Points",
      "outputs": [],
      "stateMutability": "nonpayable",
      "type": "function"
    }
  ],
  "transactionHash": "0x42c2803cb887723deaf1ece0424fb68579f25807453c76f582ead9c88df48953",
  "args": [
    "0x5d891E48054d440B22a407AF230b699Ac119629e"
  ],
  "numDeployments": 2,
  "solcInputHash": "5922fb806eafb01cd0a9f13b0bcc6863",
  "bytecode": "0x608060405234801561001057600080fd5b506040516101f73803806101f783398101604081905261002f91610054565b600080546001600160a01b0319166001600160a01b0392909216919091179055610084565b60006020828403121561006657600080fd5b81516001600160a01b038116811461007d57600080fd5b9392505050565b610164806100936000396000f3fe608060405234801561001057600080fd5b506004361061002b5760003560e01c8063934a5932146100a5575b600a6001541061003757005b60018060008282546100499190610107565b909155505060008054604080516304d092c760e01b815290516001600160a01b03909216926304d092c79260048084019382900301818387803b15801561008f57600080fd5b505af11580156100a3573d6000803e3d6000fd5b005b6100a36001805560008054604080516304d092c760e01b815290516001600160a01b03909216926304d092c79260048084019382900301818387803b1580156100ed57600080fd5b505af1158015610101573d6000803e3d6000fd5b50505050565b8082018082111561012857634e487b7160e01b600052601160045260246000fd5b9291505056fea2646970667358221220ddd508c71f718ee3e5d98deaa6d5dcfcaec8469f885c2b2322b5ac9d39823b0064736f6c63430008140033",
  "devdoc": {
    "kind": "dev",
    "methods": {},
    "version": 1
  },
  "userdoc": {
    "kind": "user",
    "methods": {},
    "version": 1
  },
  "storageLayout": {
    "storage": [
      {
        "astId": 127,
        "contract": "contracts/S1/Season1Challenge5Solution.sol:Season1Challenge5Solution",
        "label": "challenge5",
        "offset": 0,
        "slot": "0",
        "type": "t_contract(Season1Challenge5)121"
      },
      {
        "astId": 129,
        "contract": "contracts/S1/Season1Challenge5Solution.sol:Season1Challenge5Solution",
        "label": "points",
        "offset": 0,
        "slot": "1",
        "type": "t_uint256"
      }
    ],
    "types": {
      "t_contract(Season1Challenge5)121": {
        "encoding": "inplace",
        "label": "contract Season1Challenge5",
        "numberOfBytes": "20"
      },
      "t_uint256": {
        "encoding": "inplace",
        "label": "uint256",
        "numberOfBytes": "32"
      }
    }
  }
}