{
  "address": "0xcBb35f5B298e6e59D09aF77a4d7938a8fa23D14E",
  "abi": [
    {
      "inputs": [
        {
          "internalType": "address",
          "name": "_nftContract",
          "type": "address"
        }
      ],
      "stateMutability": "nonpayable",
      "type": "constructor"
    },
    {
      "inputs": [],
      "name": "allowMinter",
      "outputs": [],
      "stateMutability": "nonpayable",
      "type": "function"
    },
    {
      "inputs": [
        {
          "internalType": "bytes",
          "name": "_data",
          "type": "bytes"
        }
      ],
      "name": "mint",
      "outputs": [],
      "stateMutability": "nonpayable",
      "type": "function"
    },
    {
      "inputs": [],
      "name": "mintFlag",
      "outputs": [],
      "stateMutability": "nonpayable",
      "type": "function"
    },
    {
      "inputs": [],
      "name": "mintFlagSelector",
      "outputs": [
        {
          "internalType": "bytes4",
          "name": "",
          "type": "bytes4"
        }
      ],
      "stateMutability": "view",
      "type": "function"
    },
    {
      "inputs": [
        {
          "internalType": "address",
          "name": "",
          "type": "address"
        }
      ],
      "name": "minters",
      "outputs": [
        {
          "internalType": "bool",
          "name": "",
          "type": "bool"
        }
      ],
      "stateMutability": "view",
      "type": "function"
    },
    {
      "inputs": [],
      "name": "nftContract",
      "outputs": [
        {
          "internalType": "address",
          "name": "",
          "type": "address"
        }
      ],
      "stateMutability": "view",
      "type": "function"
    }
  ],
  "transactionHash": "0xc5a0970d0f95a9fe84d26f0ee003b7b50e31bf166c848bd13c0134070bb1a625",
  "args": [
    "0x0A8875B3Cb3642E4f09A1eed79347b3Ef8F882E2"
  ],
  "numDeployments": 1,
  "solcInputHash": "760304bfe83a38663d29b3559b4867ca",
  "bytecode": "0x60806040526000805463ffffffff60a01b191663e00d023f60a01b17905534801561002957600080fd5b506040516105d13803806105d18339810160408190526100489161006d565b600080546001600160a01b0319166001600160a01b039290921691909117905561009d565b60006020828403121561007f57600080fd5b81516001600160a01b038116811461009657600080fd5b9392505050565b610525806100ac6000396000f3fe608060405234801561001057600080fd5b50600436106100625760003560e01c80630fd1650614610067578063729d3250146100715780637ba0e2e7146100a3578063d56d229d146100b6578063e00d023f146100e1578063f46eccc4146100e9575b600080fd5b61006f61011c565b005b60005461008590600160a01b900460e01b81565b6040516001600160e01b031990911681526020015b60405180910390f35b61006f6100b1366004610395565b610163565b6000546100c9906001600160a01b031681565b6040516001600160a01b03909116815260200161009a565b61006f610287565b61010c6100f7366004610446565b60016020526000908152604090205460ff1681565b604051901515815260200161009a565b3330146101445760405162461bcd60e51b815260040161013b90610476565b60405180910390fd5b326000908152600160208190526040909120805460ff19169091179055565b61016b610361565b6004604482376000548151600160a01b90910460e01b6001600160e01b031916146101e45760405162461bcd60e51b815260206004820152602360248201527f43616e206f6e6c792063616c6c20746865206d696e74466c61672066756e637460448201526234b7b760e91b606482015260840161013b565b6000306001600160a01b0316836040516101fe91906104c0565b6000604051808303816000865af19150503d806000811461023b576040519150601f19603f3d011682016040523d82523d6000602084013e610240565b606091505b50509050806102825760405162461bcd60e51b815260206004820152600e60248201526d0c6c2d8d840ccc2d2d8cac84074560931b604482015260640161013b565b505050565b3330146102a65760405162461bcd60e51b815260040161013b90610476565b3260009081526001602052604090205460ff166102fb5760405162461bcd60e51b8152602060048201526013602482015272139bdd08185b1b1bddd959081d1bc81b5a5b9d606a1b604482015260640161013b565b6000546040516340c10f1960e01b8152326004820152600760248201526001600160a01b03909116906340c10f1990604401600060405180830381600087803b15801561034757600080fd5b505af115801561035b573d6000803e3d6000fd5b50505050565b60405180602001604052806001906020820280368337509192915050565b634e487b7160e01b600052604160045260246000fd5b6000602082840312156103a757600080fd5b813567ffffffffffffffff808211156103bf57600080fd5b818401915084601f8301126103d357600080fd5b8135818111156103e5576103e561037f565b604051601f8201601f19908116603f0116810190838211818310171561040d5761040d61037f565b8160405282815287602084870101111561042657600080fd5b826020860160208301376000928101602001929092525095945050505050565b60006020828403121561045857600080fd5b81356001600160a01b038116811461046f57600080fd5b9392505050565b6020808252602a908201527f4f6e6c7920746865204368616c6c656e67653720636f6e74726163742063616e6040820152692063616c6c207468697360b01b606082015260800190565b6000825160005b818110156104e157602081860181015185830152016104c7565b50600092019182525091905056fea2646970667358221220f7390c49fedfc0ae96cfd14c9ff7f341fc87bf53e60ca5c668ec7c12bb67b34a64736f6c63430008140033",
  "devdoc": {
    "kind": "dev",
    "methods": {},
    "version": 1
  },
  "userdoc": {
    "kind": "user",
    "methods": {},
    "version": 1
  },
  "storageLayout": {
    "storage": [
      {
        "astId": 8002,
        "contract": "contracts/S2/Season2Challenge7.sol:Season2Challenge7",
        "label": "nftContract",
        "offset": 0,
        "slot": "0",
        "type": "t_address"
      },
      {
        "astId": 8010,
        "contract": "contracts/S2/Season2Challenge7.sol:Season2Challenge7",
        "label": "mintFlagSelector",
        "offset": 20,
        "slot": "0",
        "type": "t_bytes4"
      },
      {
        "astId": 8014,
        "contract": "contracts/S2/Season2Challenge7.sol:Season2Challenge7",
        "label": "minters",
        "offset": 0,
        "slot": "1",
        "type": "t_mapping(t_address,t_bool)"
      }
    ],
    "types": {
      "t_address": {
        "encoding": "inplace",
        "label": "address",
        "numberOfBytes": "20"
      },
      "t_bool": {
        "encoding": "inplace",
        "label": "bool",
        "numberOfBytes": "1"
      },
      "t_bytes4": {
        "encoding": "inplace",
        "label": "bytes4",
        "numberOfBytes": "4"
      },
      "t_mapping(t_address,t_bool)": {
        "encoding": "mapping",
        "key": "t_address",
        "label": "mapping(address => bool)",
        "numberOfBytes": "32",
        "value": "t_bool"
      }
    }
  }
}