{
  "address": "0xA93264E7F3eA3b833f4f9E5939Aaa85964479C91",
  "abi": [
    {
      "inputs": [
        {
          "internalType": "address",
          "name": "_nftContract",
          "type": "address"
        },
        {
          "internalType": "address",
          "name": "_delegateAddress",
          "type": "address"
        },
        {
          "internalType": "address",
          "name": "_owner",
          "type": "address"
        }
      ],
      "stateMutability": "nonpayable",
      "type": "constructor"
    },
    {
      "stateMutability": "nonpayable",
      "type": "fallback"
    },
    {
      "inputs": [],
      "name": "mintFlag",
      "outputs": [],
      "stateMutability": "nonpayable",
      "type": "function"
    },
    {
      "inputs": [],
      "name": "nftContract",
      "outputs": [
        {
          "internalType": "address",
          "name": "",
          "type": "address"
        }
      ],
      "stateMutability": "view",
      "type": "function"
    },
    {
      "inputs": [],
      "name": "owner",
      "outputs": [
        {
          "internalType": "address",
          "name": "",
          "type": "address"
        }
      ],
      "stateMutability": "view",
      "type": "function"
    }
  ],
  "transactionHash": "0x018b6b1b9305e9a44187cf2018d55747003aaf181a903c31970ef44249625ee1",
  "args": [
    "0xC9eB4F475584D049ed99979162d8D5DF28f1C436",
    "0x81c262aCE3534CF02ACDdf0896db12092C17A6E3",
    "0xdbD2bA19030a57431B3EB714784f1Bd68ECFf46D"
  ],
  "numDeployments": 1,
  "solcInputHash": "760304bfe83a38663d29b3559b4867ca",
  "bytecode": "0x608060405234801561001057600080fd5b506040516102c33803806102c383398101604081905261002f9161008d565b600280546001600160a01b039485166001600160a01b0319918216179091556001805493851693821693909317909255600080549190931691161790556100d0565b80516001600160a01b038116811461008857600080fd5b919050565b6000806000606084860312156100a257600080fd5b6100ab84610071565b92506100b960208501610071565b91506100c760408501610071565b90509250925092565b6101e4806100df6000396000f3fe608060405234801561001057600080fd5b50600436106100415760003560e01c80638da5cb5b146100a8578063d56d229d146100d7578063e00d023f146100ea575b6001546040516000916001600160a01b031690610061908390369061019e565b600060405180830381855af49150503d806000811461009c576040519150601f19603f3d011682016040523d82523d6000602084013e6100a1565b606091505b505090505b005b6000546100bb906001600160a01b031681565b6040516001600160a01b03909116815260200160405180910390f35b6002546100bb906001600160a01b031681565b6100a66000546001600160a01b031633146101385760405162461bcd60e51b815260206004820152600a60248201526927b7363c9037bbb732b960b11b604482015260640160405180910390fd5b6002546040516340c10f1960e01b8152336004820152600760248201526001600160a01b03909116906340c10f1990604401600060405180830381600087803b15801561018457600080fd5b505af1158015610198573d6000803e3d6000fd5b50505050565b818382376000910190815291905056fea2646970667358221220e52ac753e00981f95dd885a8c7450ef835b1c772f13bf5e194fa86cad105fbdc64736f6c63430008140033",
  "devdoc": {
    "kind": "dev",
    "methods": {},
    "version": 1
  },
  "userdoc": {
    "kind": "user",
    "methods": {},
    "version": 1
  },
  "storageLayout": {
    "storage": [
      {
        "astId": 5967,
        "contract": "contracts/S1/Season1Challenge7.sol:Season1Challenge7",
        "label": "owner",
        "offset": 0,
        "slot": "0",
        "type": "t_address"
      },
      {
        "astId": 5970,
        "contract": "contracts/S1/Season1Challenge7.sol:Season1Challenge7",
        "label": "delegate",
        "offset": 0,
        "slot": "1",
        "type": "t_contract(Season1Challenge7Delegate)5965"
      },
      {
        "astId": 5972,
        "contract": "contracts/S1/Season1Challenge7.sol:Season1Challenge7",
        "label": "nftContract",
        "offset": 0,
        "slot": "2",
        "type": "t_address"
      }
    ],
    "types": {
      "t_address": {
        "encoding": "inplace",
        "label": "address",
        "numberOfBytes": "20"
      },
      "t_contract(Season1Challenge7Delegate)5965": {
        "encoding": "inplace",
        "label": "contract Season1Challenge7Delegate",
        "numberOfBytes": "20"
      }
    }
  }
}