{
  "address": "0xd491a56ed4c7ff3A386D703A0a20C5D20976E24d",
  "abi": [
    {
      "inputs": [
        {
          "internalType": "address",
          "name": "_nftContract",
          "type": "address"
        },
        {
          "internalType": "bytes32",
          "name": "_password",
          "type": "bytes32"
        }
      ],
      "stateMutability": "nonpayable",
      "type": "constructor"
    },
    {
      "inputs": [
        {
          "internalType": "bytes32",
          "name": "_password",
          "type": "bytes32"
        }
      ],
      "name": "mintFlag",
      "outputs": [],
      "stateMutability": "nonpayable",
      "type": "function"
    },
    {
      "inputs": [],
      "name": "nftContract",
      "outputs": [
        {
          "internalType": "address",
          "name": "",
          "type": "address"
        }
      ],
      "stateMutability": "view",
      "type": "function"
    }
  ],
  "transactionHash": "0x2b39e808ae85997fca6dc27bf8e9aa4a05a1a2cfd7b718fba541f03c47e9b710",
  "args": [
    "0xC9eB4F475584D049ed99979162d8D5DF28f1C436",
    {
      "0": 58,
      "1": 137,
      "2": 85,
      "3": 98,
      "4": 252,
      "5": 86,
      "6": 64,
      "7": 194,
      "8": 27,
      "9": 210,
      "10": 115,
      "11": 152,
      "12": 151,
      "13": 184,
      "14": 88,
      "15": 187,
      "16": 149,
      "17": 79,
      "18": 231,
      "19": 208,
      "20": 167,
      "21": 144,
      "22": 4,
      "23": 158,
      "24": 44,
      "25": 76,
      "26": 71,
      "27": 252,
      "28": 170,
      "29": 36,
      "30": 222,
      "31": 134
    }
  ],
  "numDeployments": 1,
  "solcInputHash": "760304bfe83a38663d29b3559b4867ca",
  "bytecode": "0x608060405234801561001057600080fd5b506040516102e33803806102e383398101604081905261002f91610058565b600080546001600160a01b0319166001600160a01b039390931692909217909155600155610092565b6000806040838503121561006b57600080fd5b82516001600160a01b038116811461008257600080fd5b6020939093015192949293505050565b610242806100a16000396000f3fe608060405234801561001057600080fd5b50600436106100365760003560e01c8063d56d229d1461003b578063dfa0c2d61461006a575b600080fd5b60005461004e906001600160a01b031681565b6040516001600160a01b03909116815260200160405180910390f35b61007d610078366004610178565b61007f565b005b600060206002546100909190610191565b61009b90601f6101c9565b6100a69060086101e2565b60015460ff90911b19915081168281146100f75760405162461bcd60e51b815260206004820152600e60248201526d15dc9bdb99c81c185cdcdddbdc9960921b604482015260640160405180910390fd5b60016002600082825461010a91906101f9565b90915550506000546040516340c10f1960e01b8152336004820152600960248201526001600160a01b03909116906340c10f1990604401600060405180830381600087803b15801561015b57600080fd5b505af115801561016f573d6000803e3d6000fd5b50505050505050565b60006020828403121561018a57600080fd5b5035919050565b6000826101ae57634e487b7160e01b600052601260045260246000fd5b500690565b634e487b7160e01b600052601160045260246000fd5b818103818111156101dc576101dc6101b3565b92915050565b80820281158282048414176101dc576101dc6101b3565b808201808211156101dc576101dc6101b356fea26469706673582212209491da5b0d1cfb3cdf4b264c262ef0f1035187234e4193dc1a0c1d3a55ffdff464736f6c63430008140033",
  "devdoc": {
    "kind": "dev",
    "methods": {},
    "version": 1
  },
  "userdoc": {
    "kind": "user",
    "methods": {},
    "version": 1
  },
  "storageLayout": {
    "storage": [
      {
        "astId": 6045,
        "contract": "contracts/S1/Season1Challenge9.sol:Season1Challenge9",
        "label": "nftContract",
        "offset": 0,
        "slot": "0",
        "type": "t_address"
      },
      {
        "astId": 6047,
        "contract": "contracts/S1/Season1Challenge9.sol:Season1Challenge9",
        "label": "password",
        "offset": 0,
        "slot": "1",
        "type": "t_bytes32"
      },
      {
        "astId": 6049,
        "contract": "contracts/S1/Season1Challenge9.sol:Season1Challenge9",
        "label": "count",
        "offset": 0,
        "slot": "2",
        "type": "t_uint256"
      }
    ],
    "types": {
      "t_address": {
        "encoding": "inplace",
        "label": "address",
        "numberOfBytes": "20"
      },
      "t_bytes32": {
        "encoding": "inplace",
        "label": "bytes32",
        "numberOfBytes": "32"
      },
      "t_uint256": {
        "encoding": "inplace",
        "label": "uint256",
        "numberOfBytes": "32"
      }
    }
  }
}