{
  "address": "0x0C679C169C74Ef48E36aF8584009566f2ed2D41f",
  "abi": [
    {
      "inputs": [
        {
          "internalType": "address",
          "name": "_nftContract",
          "type": "address"
        }
      ],
      "stateMutability": "nonpayable",
      "type": "constructor"
    },
    {
      "inputs": [],
      "name": "mintFlag",
      "outputs": [],
      "stateMutability": "nonpayable",
      "type": "function"
    },
    {
      "inputs": [],
      "name": "nftContract",
      "outputs": [
        {
          "internalType": "address",
          "name": "",
          "type": "address"
        }
      ],
      "stateMutability": "view",
      "type": "function"
    }
  ],
  "transactionHash": "0xb0180b65ac059970d9aca9e51fed41404475993d1eea1320353524a8e1c97fd9",
  "args": [
    "0x0A8875B3Cb3642E4f09A1eed79347b3Ef8F882E2"
  ],
  "numDeployments": 1,
  "solcInputHash": "760304bfe83a38663d29b3559b4867ca",
  "bytecode": "0x608060405234801561001057600080fd5b506040516103f43803806103f483398101604081905261002f91610054565b600080546001600160a01b0319166001600160a01b0392909216919091179055610084565b60006020828403121561006657600080fd5b81516001600160a01b038116811461007d57600080fd5b9392505050565b610361806100936000396000f3fe608060405234801561001057600080fd5b50600436106100365760003560e01c8063d56d229d1461003b578063e00d023f1461006a575b600080fd5b60005461004e906001600160a01b031681565b6040516001600160a01b03909116815260200160405180910390f35b610072610074565b005b3233036100c85760405162461bcd60e51b815260206004820152601760248201527f4d7573742063616c6c2066726f6d20636f6e747261637400000000000000000060448201526064015b60405180910390fd5b604051682622aa2fa6a2afa4a760b91b602082015260290160405160208183030381529060405280519060200120336001600160a01b0316635ccc06616040518163ffffffff1660e01b8152600401600060405180830381865afa158015610134573d6000803e3d6000fd5b505050506040513d6000823e601f3d908101601f1916820160405261015c9190810190610262565b60405160200161016c919061030f565b60405160208183030381529060405280519060200120146101c25760405162461bcd60e51b815260206004820152601060248201526f57726f6e6720616363657373206b657960801b60448201526064016100bf565b6000546040516340c10f1960e01b8152326004820152600360248201526001600160a01b03909116906340c10f1990604401600060405180830381600087803b15801561020e57600080fd5b505af1158015610222573d6000803e3d6000fd5b50505050565b634e487b7160e01b600052604160045260246000fd5b60005b83811015610259578181015183820152602001610241565b50506000910152565b60006020828403121561027457600080fd5b815167ffffffffffffffff8082111561028c57600080fd5b818401915084601f8301126102a057600080fd5b8151818111156102b2576102b2610228565b604051601f8201601f19908116603f011681019083821181831017156102da576102da610228565b816040528281528760208487010111156102f357600080fd5b61030483602083016020880161023e565b979650505050505050565b6000825161032181846020870161023e565b919091019291505056fea26469706673582212207048f448980283945e55d4a5892891cc08b16a34d1d769fffbea982a90f0e53e64736f6c63430008140033",
  "devdoc": {
    "kind": "dev",
    "methods": {},
    "version": 1
  },
  "userdoc": {
    "kind": "user",
    "methods": {},
    "version": 1
  },
  "storageLayout": {
    "storage": [
      {
        "astId": 7636,
        "contract": "contracts/S2/Season2Challenge3.sol:Season2Challenge3",
        "label": "nftContract",
        "offset": 0,
        "slot": "0",
        "type": "t_address"
      }
    ],
    "types": {
      "t_address": {
        "encoding": "inplace",
        "label": "address",
        "numberOfBytes": "20"
      }
    }
  }
}