{
  "address": "0xC65E1c25f26fd2e5c425fC1fbD43754cB34e8C64",
  "abi": [
    {
      "inputs": [
        {
          "internalType": "address",
          "name": "_nftContract",
          "type": "address"
        }
      ],
      "stateMutability": "nonpayable",
      "type": "constructor"
    },
    {
      "inputs": [
        {
          "internalType": "address",
          "name": "",
          "type": "address"
        }
      ],
      "name": "blockNumber",
      "outputs": [
        {
          "internalType": "uint256",
          "name": "",
          "type": "uint256"
        }
      ],
      "stateMutability": "view",
      "type": "function"
    },
    {
      "inputs": [
        {
          "internalType": "uint256",
          "name": "",
          "type": "uint256"
        }
      ],
      "name": "blocks",
      "outputs": [
        {
          "internalType": "bool",
          "name": "",
          "type": "bool"
        }
      ],
      "stateMutability": "view",
      "type": "function"
    },
    {
      "inputs": [],
      "name": "futureBlocks",
      "outputs": [
        {
          "internalType": "uint256",
          "name": "",
          "type": "uint256"
        }
      ],
      "stateMutability": "view",
      "type": "function"
    },
    {
      "inputs": [
        {
          "internalType": "bytes",
          "name": "rlpBytes",
          "type": "bytes"
        }
      ],
      "name": "mintFlag",
      "outputs": [],
      "stateMutability": "nonpayable",
      "type": "function"
    },
    {
      "inputs": [],
      "name": "nftContract",
      "outputs": [
        {
          "internalType": "address",
          "name": "",
          "type": "address"
        }
      ],
      "stateMutability": "view",
      "type": "function"
    },
    {
      "inputs": [],
      "name": "preMintFlag",
      "outputs": [],
      "stateMutability": "nonpayable",
      "type": "function"
    }
  ],
  "transactionHash": "0xddbe1f3037f366907f0b9e76c29abe6f8ce57bce023f3eb18fed04ba70938941",
  "args": [
    "0xC9eB4F475584D049ed99979162d8D5DF28f1C436"
  ],
  "numDeployments": 1,
  "solcInputHash": "760304bfe83a38663d29b3559b4867ca",
  "bytecode": "0x608060405234801561001057600080fd5b50604051610a48380380610a4883398101604081905261002f91610054565b600080546001600160a01b0319166001600160a01b0392909216919091179055610084565b60006020828403121561006657600080fd5b81516001600160a01b038116811461007d57600080fd5b9392505050565b6109b5806100936000396000f3fe608060405234801561001057600080fd5b50600436106100625760003560e01c806310f081ec146100675780634f359a371461007c5780638c63f32a146100975780639e5a1ac0146100b7578063d56d229d146100bf578063f25b3f99146100ea575b600080fd5b61007a610075366004610802565b61011d565b005b610084600281565b6040519081526020015b60405180910390f35b6100846100a53660046108b3565b60016020526000908152604090205481565b61007a6103d6565b6000546100d2906001600160a01b031681565b6040516001600160a01b03909116815260200161008e565b61010d6100f83660046108dc565b60026020526000908152604090205460ff1681565b604051901515815260200161008e565b3360009081526001602052604081205490036101745760405162461bcd60e51b8152602060048201526011602482015270141c99535a5b9d119b1859c8199a5c9cdd607a1b60448201526064015b60405180910390fd5b336000908152600160205260409020546101909060029061090b565b4310156101df5760405162461bcd60e51b815260206004820152601960248201527f46757475726520626c6f636b206e6f7420726561636865642e00000000000000604482015260640161016b565b336000908152600160205260409020546101fb9060029061090b565b6102079061010061090b565b43106102655760405162461bcd60e51b815260206004820152602760248201527f596f75206d697373207468652077696e646f772e205072654d696e74466c61676044820152661030b3b0b4b71760c91b606482015260840161016b565b60006102a061029b8360408051808201825260008082526020918201528151808301909252825182529182019181019190915290565b610456565b905060006102c7826008815181106102ba576102ba610924565b602002602001015161056c565b336000908152600160205260409020549091506102e69060029061090b565b81146103225760405162461bcd60e51b815260206004820152600b60248201526a57726f6e6720626c6f636b60a81b604482015260640161016b565b8251602084012081401461036d5760405162461bcd60e51b81526020600482015260126024820152712bb937b73390313637b1b5903432b0b232b960711b604482015260640161016b565b6000546040516340c10f1960e01b8152336004820152600c60248201526001600160a01b03909116906340c10f1990604401600060405180830381600087803b1580156103b957600080fd5b505af11580156103cd573d6000803e3d6000fd5b50505050505050565b4360009081526002602052604090205460ff161561042b5760405162461bcd60e51b8152602060048201526012602482015271109b1bd8dac8185b1c9958591e481d5cd95960721b604482015260640161016b565b436000818152600260209081526040808320805460ff19166001908117909155338452909152902055565b6060610461826105ba565b61046a57600080fd5b6000610475836105f5565b905060008167ffffffffffffffff811115610492576104926107ec565b6040519080825280602002602001820160405280156104d757816020015b60408051808201909152600080825260208201528152602001906001900390816104b05790505b50905060006104e9856020015161067a565b85602001516104f8919061090b565b90506000805b848110156105615761050f836106fc565b915060405180604001604052808381526020018481525084828151811061053857610538610924565b602090810291909101015261054d828461090b565b9250806105598161093a565b9150506104fe565b509195945050505050565b80516000901580159061058157508151602110155b61058a57600080fd5b600080610596846107a5565b8151919350915060208210156105b25760208290036101000a90045b949350505050565b805160009081036105cd57506000919050565b6020820151805160001a9060c08210156105eb575060009392505050565b5060019392505050565b8051600090810361060857506000919050565b600080610618846020015161067a565b8460200151610627919061090b565b905060008460000151856020015161063f919061090b565b90505b8082101561067157610653826106fc565b61065d908361090b565b9150826106698161093a565b935050610642565b50909392505050565b8051600090811a60808110156106935750600092915050565b60b88110806106ae575060c081108015906106ae575060f881105b156106bc5750600192915050565b60c08110156106f0576106d1600160b8610953565b6106de9060ff168261096c565b6106e990600161090b565b9392505050565b6106d1600160f8610953565b80516000908190811a6080811015610717576001915061079e565b60b881101561073d5761072b60808261096c565b61073690600161090b565b915061079e565b60c081101561076a5760b78103600185019450806020036101000a8551046001820181019350505061079e565b60f881101561077e5761072b60c08261096c565b60f78103600185019450806020036101000a855104600182018101935050505b5092915050565b60008060006107b7846020015161067a565b905060008185602001516107cb919061090b565b905060008286600001516107df919061096c565b9196919550909350505050565b634e487b7160e01b600052604160045260246000fd5b60006020828403121561081457600080fd5b813567ffffffffffffffff8082111561082c57600080fd5b818401915084601f83011261084057600080fd5b813581811115610852576108526107ec565b604051601f8201601f19908116603f0116810190838211818310171561087a5761087a6107ec565b8160405282815287602084870101111561089357600080fd5b826020860160208301376000928101602001929092525095945050505050565b6000602082840312156108c557600080fd5b81356001600160a01b03811681146106e957600080fd5b6000602082840312156108ee57600080fd5b5035919050565b634e487b7160e01b600052601160045260246000fd5b8082018082111561091e5761091e6108f5565b92915050565b634e487b7160e01b600052603260045260246000fd5b60006001820161094c5761094c6108f5565b5060010190565b60ff828116828216039081111561091e5761091e6108f5565b8181038181111561091e5761091e6108f556fea26469706673582212207098c0d5d5384c6f9023e2285edce982f72e5d3f552ccc016d8d3012e2f437ca64736f6c63430008140033",
  "devdoc": {
    "kind": "dev",
    "methods": {},
    "version": 1
  },
  "userdoc": {
    "kind": "user",
    "methods": {},
    "version": 1
  },
  "storageLayout": {
    "storage": [
      {
        "astId": 5363,
        "contract": "contracts/S1/Season1Challenge12.sol:Season1Challenge12",
        "label": "nftContract",
        "offset": 0,
        "slot": "0",
        "type": "t_address"
      },
      {
        "astId": 5367,
        "contract": "contracts/S1/Season1Challenge12.sol:Season1Challenge12",
        "label": "blockNumber",
        "offset": 0,
        "slot": "1",
        "type": "t_mapping(t_address,t_uint256)"
      },
      {
        "astId": 5371,
        "contract": "contracts/S1/Season1Challenge12.sol:Season1Challenge12",
        "label": "blocks",
        "offset": 0,
        "slot": "2",
        "type": "t_mapping(t_uint256,t_bool)"
      }
    ],
    "types": {
      "t_address": {
        "encoding": "inplace",
        "label": "address",
        "numberOfBytes": "20"
      },
      "t_bool": {
        "encoding": "inplace",
        "label": "bool",
        "numberOfBytes": "1"
      },
      "t_mapping(t_address,t_uint256)": {
        "encoding": "mapping",
        "key": "t_address",
        "label": "mapping(address => uint256)",
        "numberOfBytes": "32",
        "value": "t_uint256"
      },
      "t_mapping(t_uint256,t_bool)": {
        "encoding": "mapping",
        "key": "t_uint256",
        "label": "mapping(uint256 => bool)",
        "numberOfBytes": "32",
        "value": "t_bool"
      },
      "t_uint256": {
        "encoding": "inplace",
        "label": "uint256",
        "numberOfBytes": "32"
      }
    }
  }
}