{
  "address": "0x3342D82dEdE6c94B0f792f1b258f6f92fc8aa65D",
  "abi": [
    {
      "inputs": [
        {
          "internalType": "address",
          "name": "_nftContract",
          "type": "address"
        }
      ],
      "stateMutability": "nonpayable",
      "type": "constructor"
    },
    {
      "inputs": [],
      "name": "EXPECTED_WEI",
      "outputs": [
        {
          "internalType": "uint256",
          "name": "",
          "type": "uint256"
        }
      ],
      "stateMutability": "view",
      "type": "function"
    },
    {
      "inputs": [],
      "name": "mintFlag",
      "outputs": [],
      "stateMutability": "nonpayable",
      "type": "function"
    },
    {
      "inputs": [],
      "name": "nftContract",
      "outputs": [
        {
          "internalType": "address",
          "name": "",
          "type": "address"
        }
      ],
      "stateMutability": "view",
      "type": "function"
    },
    {
      "stateMutability": "payable",
      "type": "receive"
    }
  ],
  "transactionHash": "0xee0e2fde7c1400d85a1edec87e8a22e2be2eb396fed84a8013dd446f59ebd87a",
  "args": [
    "0x0A8875B3Cb3642E4f09A1eed79347b3Ef8F882E2"
  ],
  "numDeployments": 1,
  "solcInputHash": "760304bfe83a38663d29b3559b4867ca",
  "bytecode": "0x608060405234801561001057600080fd5b5060405161032a38038061032a83398101604081905261002f91610054565b600080546001600160a01b0319166001600160a01b0392909216919091179055610084565b60006020828403121561006657600080fd5b81516001600160a01b038116811461007d57600080fd5b9392505050565b610297806100936000396000f3fe6080604052600436106100385760003560e01c80635abb46141461009c578063d56d229d146100c7578063e00d023f146100ff57600080fd5b3661009757633b9aca0034146100825760405162461bcd60e51b815260206004820152600a60248201526918985908185b5bdd5b9d60b21b60448201526064015b60405180910390fd5b6000805460ff60a01b1916600160a01b179055005b600080fd5b3480156100a857600080fd5b506100b4633b9aca0081565b6040519081526020015b60405180910390f35b3480156100d357600080fd5b506000546100e7906001600160a01b031681565b6040516001600160a01b0390911681526020016100be565b34801561010b57600080fd5b50610114610116565b005b6000805460ff60a01b1916815560405133908281818181865af19150503d806000811461015f576040519150601f19603f3d011682016040523d82523d6000602084013e610164565b606091505b50509050806101a75760405162461bcd60e51b815260206004820152600f60248201526e18d85b1b189858dac819985a5b1959608a1b6044820152606401610079565b600054600160a01b900460ff166101eb5760405162461bcd60e51b81526020600482015260086024820152671b9bdd081c185a5960c21b6044820152606401610079565b6000546040516340c10f1960e01b81523260048083019190915260248201526001600160a01b03909116906340c10f1990604401600060405180830381600087803b15801561023957600080fd5b505af115801561024d573d6000803e3d6000fd5b50506000805460ff60a01b1916905550505056fea2646970667358221220ff582c9ac85bfb2664539c9b2c9f145999ae7941145cadbeeada8c12560bff3164736f6c63430008140033",
  "devdoc": {
    "kind": "dev",
    "methods": {},
    "version": 1
  },
  "userdoc": {
    "kind": "user",
    "methods": {},
    "version": 1
  },
  "storageLayout": {
    "storage": [
      {
        "astId": 7696,
        "contract": "contracts/S2/Season2Challenge4.sol:Season2Challenge4",
        "label": "nftContract",
        "offset": 0,
        "slot": "0",
        "type": "t_address"
      },
      {
        "astId": 7701,
        "contract": "contracts/S2/Season2Challenge4.sol:Season2Challenge4",
        "label": "_paid",
        "offset": 20,
        "slot": "0",
        "type": "t_bool"
      }
    ],
    "types": {
      "t_address": {
        "encoding": "inplace",
        "label": "address",
        "numberOfBytes": "20"
      },
      "t_bool": {
        "encoding": "inplace",
        "label": "bool",
        "numberOfBytes": "1"
      }
    }
  }
}