{
  "address": "0x8eb62136175B480b1139aF89BCbDd42F891D7333",
  "abi": [
    {
      "inputs": [
        {
          "internalType": "address",
          "name": "_nftContract",
          "type": "address"
        }
      ],
      "stateMutability": "nonpayable",
      "type": "constructor"
    },
    {
      "inputs": [],
      "name": "ECDSAInvalidSignature",
      "type": "error"
    },
    {
      "inputs": [
        {
          "internalType": "uint256",
          "name": "length",
          "type": "uint256"
        }
      ],
      "name": "ECDSAInvalidSignatureLength",
      "type": "error"
    },
    {
      "inputs": [
        {
          "internalType": "bytes32",
          "name": "s",
          "type": "bytes32"
        }
      ],
      "name": "ECDSAInvalidSignatureS",
      "type": "error"
    },
    {
      "inputs": [
        {
          "internalType": "address",
          "name": "owner",
          "type": "address"
        }
      ],
      "name": "OwnableInvalidOwner",
      "type": "error"
    },
    {
      "inputs": [
        {
          "internalType": "address",
          "name": "account",
          "type": "address"
        }
      ],
      "name": "OwnableUnauthorizedAccount",
      "type": "error"
    },
    {
      "anonymous": false,
      "inputs": [
        {
          "indexed": true,
          "internalType": "address",
          "name": "minter",
          "type": "address"
        }
      ],
      "name": "MinterAdded",
      "type": "event"
    },
    {
      "anonymous": false,
      "inputs": [
        {
          "indexed": true,
          "internalType": "address",
          "name": "minter",
          "type": "address"
        }
      ],
      "name": "MinterRemoved",
      "type": "event"
    },
    {
      "anonymous": false,
      "inputs": [
        {
          "indexed": true,
          "internalType": "address",
          "name": "previousOwner",
          "type": "address"
        },
        {
          "indexed": true,
          "internalType": "address",
          "name": "newOwner",
          "type": "address"
        }
      ],
      "name": "OwnershipTransferred",
      "type": "event"
    },
    {
      "inputs": [
        {
          "internalType": "address",
          "name": "_minter",
          "type": "address"
        }
      ],
      "name": "addMinter",
      "outputs": [],
      "stateMutability": "nonpayable",
      "type": "function"
    },
    {
      "inputs": [
        {
          "internalType": "address",
          "name": "",
          "type": "address"
        }
      ],
      "name": "isMinter",
      "outputs": [
        {
          "internalType": "bool",
          "name": "",
          "type": "bool"
        }
      ],
      "stateMutability": "view",
      "type": "function"
    },
    {
      "inputs": [
        {
          "internalType": "address",
          "name": "_minter",
          "type": "address"
        },
        {
          "internalType": "bytes",
          "name": "signature",
          "type": "bytes"
        }
      ],
      "name": "mintFlag",
      "outputs": [],
      "stateMutability": "nonpayable",
      "type": "function"
    },
    {
      "inputs": [],
      "name": "nftContract",
      "outputs": [
        {
          "internalType": "address",
          "name": "",
          "type": "address"
        }
      ],
      "stateMutability": "view",
      "type": "function"
    },
    {
      "inputs": [],
      "name": "owner",
      "outputs": [
        {
          "internalType": "address",
          "name": "",
          "type": "address"
        }
      ],
      "stateMutability": "view",
      "type": "function"
    },
    {
      "inputs": [
        {
          "internalType": "address",
          "name": "_minter",
          "type": "address"
        }
      ],
      "name": "removeMinter",
      "outputs": [],
      "stateMutability": "nonpayable",
      "type": "function"
    },
    {
      "inputs": [],
      "name": "renounceOwnership",
      "outputs": [],
      "stateMutability": "nonpayable",
      "type": "function"
    },
    {
      "inputs": [
        {
          "internalType": "address",
          "name": "newOwner",
          "type": "address"
        }
      ],
      "name": "transferOwnership",
      "outputs": [],
      "stateMutability": "nonpayable",
      "type": "function"
    }
  ],
  "transactionHash": "0x0a6d50023be9ac0cc4bf14cac3546b0159368aa9bd1d246dc549e6b9e200e1a0",
  "args": [
    "0xC9eB4F475584D049ed99979162d8D5DF28f1C436"
  ],
  "numDeployments": 1,
  "solcInputHash": "760304bfe83a38663d29b3559b4867ca",
  "bytecode": "0x608060405234801561001057600080fd5b506040516108e73803806108e783398101604081905261002f916100d4565b338061005557604051631e4fbdf760e01b81526000600482015260240160405180910390fd5b61005e81610084565b50600180546001600160a01b0319166001600160a01b0392909216919091179055610104565b600080546001600160a01b038381166001600160a01b0319831681178455604051919092169283917f8be0079c531659141344cd1fd0a4f28419497f9722a3daafe3b4186f6b6457e09190a35050565b6000602082840312156100e657600080fd5b81516001600160a01b03811681146100fd57600080fd5b9392505050565b6107d4806101136000396000f3fe608060405234801561001057600080fd5b50600436106100885760003560e01c8063aa271e1a1161005b578063aa271e1a146100e7578063d56d229d1461011a578063f2fde38b1461012d578063fb2207021461014057600080fd5b80633092afd51461008d578063715018a6146100a25780638da5cb5b146100aa578063983b2d56146100d4575b600080fd5b6100a061009b36600461068e565b610153565b005b6100a06101a4565b6000546001600160a01b03165b6040516001600160a01b0390911681526020015b60405180910390f35b6100a06100e236600461068e565b6101b8565b61010a6100f536600461068e565b60026020526000908152604090205460ff1681565b60405190151581526020016100cb565b6001546100b7906001600160a01b031681565b6100a061013b36600461068e565b61020c565b6100a061014e3660046106c6565b61024f565b61015b6103f2565b6001600160a01b038116600081815260026020526040808220805460ff19169055517fe94479a9f7e1952cc78f2d6baab678adc1b772d936c6583def489e524cb666929190a250565b6101ac6103f2565b6101b6600061041f565b565b6101c06103f2565b6001600160a01b038116600081815260026020526040808220805460ff19166001179055517f6ae172837ea30b801fbfcdd4108aa1d5bf8ff775444fd70256b44e6bf3dfc3f69190a250565b6102146103f2565b6001600160a01b03811661024357604051631e4fbdf760e01b8152600060048201526024015b60405180910390fd5b61024c8161041f565b50565b6001600160a01b03821660009081526002602052604090205460ff166102a65760405162461bcd60e51b815260206004820152600c60248201526b2737ba10309036b4b73a32b960a11b604482015260640161023a565b60408051602080820183905260126060830152711091c810d5118810da185b1b195b99d9480d60721b60808084019190915233838501528351808403909101815260a090920190925280519101207f19457468657265756d205369676e6564204d6573736167653a0a3332000000006000908152601c829052603c81209061032e828561046f565b9050846001600160a01b0316816001600160a01b0316146103855760405162461bcd60e51b8152602060048201526011602482015270496e76616c6964207369676e617475726560781b604482015260640161023a565b6001546040516340c10f1960e01b81523360048083019190915260248201526001600160a01b03909116906340c10f1990604401600060405180830381600087803b1580156103d357600080fd5b505af11580156103e7573d6000803e3d6000fd5b505050505050505050565b6000546001600160a01b031633146101b65760405163118cdaa760e01b815233600482015260240161023a565b600080546001600160a01b038381166001600160a01b0319831681178455604051919092169283917f8be0079c531659141344cd1fd0a4f28419497f9722a3daafe3b4186f6b6457e09190a35050565b60008060008061047f8686610499565b92509250925061048f82826104e6565b5090949350505050565b600080600083516041036104d35760208401516040850151606086015160001a6104c5888285856105a3565b9550955095505050506104df565b50508151600091506002905b9250925092565b60008260038111156104fa576104fa610788565b03610503575050565b600182600381111561051757610517610788565b036105355760405163f645eedf60e01b815260040160405180910390fd5b600282600381111561054957610549610788565b0361056a5760405163fce698f760e01b81526004810182905260240161023a565b600382600381111561057e5761057e610788565b0361059f576040516335e2f38360e21b81526004810182905260240161023a565b5050565b600080807f7fffffffffffffffffffffffffffffff5d576e7357a4501ddfe92f46681b20a08411156105de5750600091506003905082610668565b604080516000808252602082018084528a905260ff891692820192909252606081018790526080810186905260019060a0016020604051602081039080840390855afa158015610632573d6000803e3d6000fd5b5050604051601f1901519150506001600160a01b03811661065e57506000925060019150829050610668565b9250600091508190505b9450945094915050565b80356001600160a01b038116811461068957600080fd5b919050565b6000602082840312156106a057600080fd5b6106a982610672565b9392505050565b634e487b7160e01b600052604160045260246000fd5b600080604083850312156106d957600080fd5b6106e283610672565b9150602083013567ffffffffffffffff808211156106ff57600080fd5b818501915085601f83011261071357600080fd5b813581811115610725576107256106b0565b604051601f8201601f19908116603f0116810190838211818310171561074d5761074d6106b0565b8160405282815288602084870101111561076657600080fd5b8260208601602083013760006020848301015280955050505050509250929050565b634e487b7160e01b600052602160045260246000fdfea264697066735822122014c0132ebd0155989bfbe0ba0fd68c837a798f69774de79c0743942bbb77537b64736f6c63430008140033",
  "devdoc": {
    "errors": {
      "ECDSAInvalidSignature()": [
        {
          "details": "The signature derives the `address(0)`."
        }
      ],
      "ECDSAInvalidSignatureLength(uint256)": [
        {
          "details": "The signature has an invalid length."
        }
      ],
      "ECDSAInvalidSignatureS(bytes32)": [
        {
          "details": "The signature has an S value that is in the upper half order."
        }
      ],
      "OwnableInvalidOwner(address)": [
        {
          "details": "The owner is not a valid owner account. (eg. `address(0)`)"
        }
      ],
      "OwnableUnauthorizedAccount(address)": [
        {
          "details": "The caller account is not authorized to perform an operation."
        }
      ]
    },
    "kind": "dev",
    "methods": {
      "owner()": {
        "details": "Returns the address of the current owner."
      },
      "renounceOwnership()": {
        "details": "Leaves the contract without owner. It will not be possible to call `onlyOwner` functions. Can only be called by the current owner. NOTE: Renouncing ownership will leave the contract without an owner, thereby disabling any functionality that is only available to the owner."
      },
      "transferOwnership(address)": {
        "details": "Transfers ownership of the contract to a new account (`newOwner`). Can only be called by the current owner."
      }
    },
    "version": 1
  },
  "userdoc": {
    "kind": "user",
    "methods": {},
    "version": 1
  },
  "storageLayout": {
    "storage": [
      {
        "astId": 8,
        "contract": "contracts/S1/Season1Challenge4.sol:Season1Challenge4",
        "label": "_owner",
        "offset": 0,
        "slot": "0",
        "type": "t_address"
      },
      {
        "astId": 5621,
        "contract": "contracts/S1/Season1Challenge4.sol:Season1Challenge4",
        "label": "nftContract",
        "offset": 0,
        "slot": "1",
        "type": "t_address"
      },
      {
        "astId": 5625,
        "contract": "contracts/S1/Season1Challenge4.sol:Season1Challenge4",
        "label": "isMinter",
        "offset": 0,
        "slot": "2",
        "type": "t_mapping(t_address,t_bool)"
      }
    ],
    "types": {
      "t_address": {
        "encoding": "inplace",
        "label": "address",
        "numberOfBytes": "20"
      },
      "t_bool": {
        "encoding": "inplace",
        "label": "bool",
        "numberOfBytes": "1"
      },
      "t_mapping(t_address,t_bool)": {
        "encoding": "mapping",
        "key": "t_address",
        "label": "mapping(address => bool)",
        "numberOfBytes": "32",
        "value": "t_bool"
      }
    }
  }
}