{
  "address": "0x041E689800B11F5938023615C186CB82692Ea800",
  "abi": [
    {
      "inputs": [
        {
          "internalType": "address",
          "name": "_nftContract",
          "type": "address"
        }
      ],
      "stateMutability": "nonpayable",
      "type": "constructor"
    },
    {
      "inputs": [],
      "name": "justCallMe",
      "outputs": [],
      "stateMutability": "nonpayable",
      "type": "function"
    },
    {
      "inputs": [],
      "name": "nftContract",
      "outputs": [
        {
          "internalType": "address",
          "name": "",
          "type": "address"
        }
      ],
      "stateMutability": "view",
      "type": "function"
    }
  ],
  "transactionHash": "0x66b2707e90470a70e3a1b6bc3310694440ae891c21add5ac0fd0ba0e8d5c36bf",
  "args": [
    "0xC9eB4F475584D049ed99979162d8D5DF28f1C436"
  ],
  "numDeployments": 1,
  "solcInputHash": "760304bfe83a38663d29b3559b4867ca",
  "bytecode": "0x608060405234801561001057600080fd5b506040516101e43803806101e483398101604081905261002f91610054565b600080546001600160a01b0319166001600160a01b0392909216919091179055610084565b60006020828403121561006657600080fd5b81516001600160a01b038116811461007d57600080fd5b9392505050565b610151806100936000396000f3fe608060405234801561001057600080fd5b50600436106100365760003560e01c806382cb05c61461003b578063d56d229d14610045575b600080fd5b610043610074565b005b600054610058906001600160a01b031681565b6040516001600160a01b03909116815260200160405180910390f35b3233036100b55760405162461bcd60e51b815260206004820152600b60248201526a139bdd08185b1b1bddd95960aa1b604482015260640160405180910390fd5b6000546040516340c10f1960e01b8152326004820152600260248201526001600160a01b03909116906340c10f1990604401600060405180830381600087803b15801561010157600080fd5b505af1158015610115573d6000803e3d6000fd5b5050505056fea26469706673582212202d6afda002c68b377a72c3605ecf66ee5953f8019ca33797bd75edb3dfe8ebfb64736f6c63430008140033",
  "devdoc": {
    "kind": "dev",
    "methods": {},
    "version": 1
  },
  "userdoc": {
    "kind": "user",
    "methods": {},
    "version": 1
  },
  "storageLayout": {
    "storage": [
      {
        "astId": 5515,
        "contract": "contracts/S1/Season1Challenge2.sol:Season1Challenge2",
        "label": "nftContract",
        "offset": 0,
        "slot": "0",
        "type": "t_address"
      }
    ],
    "types": {
      "t_address": {
        "encoding": "inplace",
        "label": "address",
        "numberOfBytes": "20"
      }
    }
  }
}