{
  "address": "0xca271fc6fb2e5243A0aDA50483E22431E6AACc81",
  "abi": [
    {
      "inputs": [
        {
          "internalType": "address",
          "name": "_season1Challenge2",
          "type": "address"
        }
      ],
      "stateMutability": "nonpayable",
      "type": "constructor"
    },
    {
      "inputs": [],
      "name": "mintFlag",
      "outputs": [],
      "stateMutability": "nonpayable",
      "type": "function"
    },
    {
      "inputs": [],
      "name": "season1Challenge2",
      "outputs": [
        {
          "internalType": "address",
          "name": "",
          "type": "address"
        }
      ],
      "stateMutability": "view",
      "type": "function"
    }
  ],
  "transactionHash": "0x47151ded5f73db942439e265c9f16c0333a7c4741044a13361b815fdd1af865d",
  "args": [
    "0x041E689800B11F5938023615C186CB82692Ea800"
  ],
  "numDeployments": 1,
  "solcInputHash": "fcdde26a63e6a549a82e907fb05736cf",
  "bytecode": "0x608060405234801561001057600080fd5b5060405161018e38038061018e83398101604081905261002f91610054565b600080546001600160a01b0319166001600160a01b0392909216919091179055610084565b60006020828403121561006657600080fd5b81516001600160a01b038116811461007d57600080fd5b9392505050565b60fc806100926000396000f3fe6080604052348015600f57600080fd5b506004361060325760003560e01c8063580f2f23146037578063e00d023f146065575b600080fd5b6000546049906001600160a01b031681565b6040516001600160a01b03909116815260200160405180910390f35b606b606d565b005b600080546040805163416582e360e11b815290516001600160a01b03909216926382cb05c69260048084019382900301818387803b15801560ad57600080fd5b505af115801560c0573d6000803e3d6000fd5b5050505056fea264697066735822122008e6ba96137177d142c0f50eee19cd2692ae62fce9830f1a232a3cac2350a3a164736f6c63430008140033",
  "devdoc": {
    "kind": "dev",
    "methods": {},
    "version": 1
  },
  "userdoc": {
    "kind": "user",
    "methods": {},
    "version": 1
  },
  "storageLayout": {
    "storage": [
      {
        "astId": 66,
        "contract": "contracts/S1/Season1Challenge2Solution.sol:Season1Challenge2Solution",
        "label": "season1Challenge2",
        "offset": 0,
        "slot": "0",
        "type": "t_address"
      }
    ],
    "types": {
      "t_address": {
        "encoding": "inplace",
        "label": "address",
        "numberOfBytes": "20"
      }
    }
  }
}