{
  "address": "0x6BBbAF0028378EaEcA1F38212b3a076131140F4B",
  "abi": [
    {
      "inputs": [
        {
          "internalType": "address",
          "name": "_nftContract",
          "type": "address"
        }
      ],
      "stateMutability": "nonpayable",
      "type": "constructor"
    },
    {
      "inputs": [],
      "name": "count",
      "outputs": [
        {
          "internalType": "uint256",
          "name": "",
          "type": "uint256"
        }
      ],
      "stateMutability": "view",
      "type": "function"
    },
    {
      "inputs": [
        {
          "internalType": "uint256",
          "name": "code",
          "type": "uint256"
        }
      ],
      "name": "mintFlag",
      "outputs": [],
      "stateMutability": "nonpayable",
      "type": "function"
    },
    {
      "inputs": [],
      "name": "nftContract",
      "outputs": [
        {
          "internalType": "address",
          "name": "",
          "type": "address"
        }
      ],
      "stateMutability": "view",
      "type": "function"
    }
  ],
  "transactionHash": "0x8fa4f4420d0f11dd778e398d6f566977b7828048ade4d2a045174203d06dd741",
  "args": [
    "0xC9eB4F475584D049ed99979162d8D5DF28f1C436"
  ],
  "numDeployments": 1,
  "solcInputHash": "760304bfe83a38663d29b3559b4867ca",
  "bytecode": "0x608060405234801561001057600080fd5b5060405161068638038061068683398101604081905261002f91610054565b600080546001600160a01b0319166001600160a01b0392909216919091179055610084565b60006020828403121561006657600080fd5b81516001600160a01b038116811461007d57600080fd5b9392505050565b6105f3806100936000396000f3fe608060405234801561001057600080fd5b50600436106100415760003560e01c806306661abd1461004657806323df6bd614610062578063d56d229d14610077575b600080fd5b61004f60015481565b6040519081526020015b60405180910390f35b61007561007036600461041a565b6100a2565b005b60005461008a906001600160a01b031681565b6040516001600160a01b039091168152602001610059565b60015460081b81146100e85760405162461bcd60e51b815260206004820152600a60248201526957726f6e6720636f646560b01b60448201526064015b60405180910390fd5b7f49166efdf3c8787fa7930087d925ab312b232cfc4fc1785f46d4d2269635a409336001600160a01b03166306fdde036040518163ffffffff1660e01b8152600401600060405180830381865afa158015610147573d6000803e3d6000fd5b505050506040513d6000823e601f3d908101601f1916820160405261016f919081019061046d565b60405160200161017f919061051a565b60405160208183030381529060405280519060200120146101cf5760405162461bcd60e51b815260206004820152600a60248201526957726f6e67206e616d6560b01b60448201526064016100df565b60005a90506202e630811180156101e8575062030d4081105b6101f1826102ae565b6040516020016102019190610536565b6040516020818303038152906040529061022e5760405162461bcd60e51b81526004016100df9190610569565b506000546040516340c10f1960e01b8152326004820152600660248201526001600160a01b03909116906340c10f1990604401600060405180830381600087803b15801561027b57600080fd5b505af115801561028f573d6000803e3d6000fd5b5050505060018060008282546102a5919061059c565b90915550505050565b606060006102bb83610341565b600101905060008167ffffffffffffffff8111156102db576102db610433565b6040519080825280601f01601f191660200182016040528015610305576020820181803683370190505b5090508181016020015b600019016f181899199a1a9b1b9c1cb0b131b232b360811b600a86061a8153600a850494508461030f57509392505050565b60008072184f03e93ff9f4daa797ed6e38ed64bf6a1f0160401b83106103805772184f03e93ff9f4daa797ed6e38ed64bf6a1f0160401b830492506040015b6d04ee2d6d415b85acef810000000083106103ac576d04ee2d6d415b85acef8100000000830492506020015b662386f26fc1000083106103ca57662386f26fc10000830492506010015b6305f5e10083106103e2576305f5e100830492506008015b61271083106103f657612710830492506004015b60648310610408576064830492506002015b600a8310610414576001015b92915050565b60006020828403121561042c57600080fd5b5035919050565b634e487b7160e01b600052604160045260246000fd5b60005b8381101561046457818101518382015260200161044c565b50506000910152565b60006020828403121561047f57600080fd5b815167ffffffffffffffff8082111561049757600080fd5b818401915084601f8301126104ab57600080fd5b8151818111156104bd576104bd610433565b604051601f8201601f19908116603f011681019083821181831017156104e5576104e5610433565b816040528281528760208487010111156104fe57600080fd5b61050f836020830160208801610449565b979650505050505050565b6000825161052c818460208701610449565b9190910192915050565b6a02bb937b7339033b0b99d160ad1b81526000825161055c81600b850160208701610449565b91909101600b0192915050565b6020815260008251806020840152610588816040850160208701610449565b601f01601f19169190910160400192915050565b8082018082111561041457634e487b7160e01b600052601160045260246000fdfea2646970667358221220e8058495c06ad3caa300f7eaabbb7d702875c219b84f46a562a88511014a0bfc64736f6c63430008140033",
  "devdoc": {
    "kind": "dev",
    "methods": {},
    "version": 1
  },
  "userdoc": {
    "kind": "user",
    "methods": {},
    "version": 1
  },
  "storageLayout": {
    "storage": [
      {
        "astId": 5844,
        "contract": "contracts/S1/Season1Challenge6.sol:Season1Challenge6",
        "label": "nftContract",
        "offset": 0,
        "slot": "0",
        "type": "t_address"
      },
      {
        "astId": 5846,
        "contract": "contracts/S1/Season1Challenge6.sol:Season1Challenge6",
        "label": "count",
        "offset": 0,
        "slot": "1",
        "type": "t_uint256"
      }
    ],
    "types": {
      "t_address": {
        "encoding": "inplace",
        "label": "address",
        "numberOfBytes": "20"
      },
      "t_uint256": {
        "encoding": "inplace",
        "label": "uint256",
        "numberOfBytes": "32"
      }
    }
  }
}