{
  "address": "0x9706bd1d894Db24000cB4C6951445CF3AecB5080",
  "abi": [
    {
      "inputs": [
        {
          "internalType": "address",
          "name": "_nftContract",
          "type": "address"
        },
        {
          "internalType": "bytes32",
          "name": "_password",
          "type": "bytes32"
        }
      ],
      "stateMutability": "nonpayable",
      "type": "constructor"
    },
    {
      "inputs": [
        {
          "internalType": "bytes32",
          "name": "_password",
          "type": "bytes32"
        }
      ],
      "name": "mintFlag",
      "outputs": [],
      "stateMutability": "payable",
      "type": "function"
    },
    {
      "inputs": [],
      "name": "nftContract",
      "outputs": [
        {
          "internalType": "address",
          "name": "",
          "type": "address"
        }
      ],
      "stateMutability": "view",
      "type": "function"
    },
    {
      "stateMutability": "payable",
      "type": "receive"
    }
  ],
  "transactionHash": "0x57010f65ab7f5c1ca3d63d237d202fadc8aaee37fee8bfc44bbd1f7f64c22cb9",
  "args": [
    "0x0A8875B3Cb3642E4f09A1eed79347b3Ef8F882E2",
    {
      "0": 131,
      "1": 103,
      "2": 147,
      "3": 67,
      "4": 190,
      "5": 30,
      "6": 91,
      "7": 95,
      "8": 60,
      "9": 152,
      "10": 141,
      "11": 249,
      "12": 126,
      "13": 212,
      "14": 56,
      "15": 160,
      "16": 248,
      "17": 166,
      "18": 188,
      "19": 253,
      "20": 81,
      "21": 51,
      "22": 125,
      "23": 106,
      "24": 210,
      "25": 2,
      "26": 100,
      "27": 191,
      "28": 217,
      "29": 80,
      "30": 130,
      "31": 15
    }
  ],
  "numDeployments": 1,
  "solcInputHash": "760304bfe83a38663d29b3559b4867ca",
  "bytecode": "0x608060405234801561001057600080fd5b5060405161044938038061044983398101604081905261002f91610058565b600080546001600160a01b0319166001600160a01b039390931692909217909155600155610092565b6000806040838503121561006b57600080fd5b82516001600160a01b038116811461008257600080fd5b6020939093015192949293505050565b6103a8806100a16000396000f3fe60806040526004361061002d5760003560e01c8063d56d229d14610039578063dfa0c2d61461007557600080fd5b3661003457005b600080fd5b34801561004557600080fd5b50600054610059906001600160a01b031681565b6040516001600160a01b03909116815260200160405180910390f35b6100886100833660046102de565b61008a565b005b806000602060025461009c91906102f7565b6100a790601f61032f565b6100b2906008610348565b60015460ff90911b19915081168281146101045760405162461bcd60e51b815260206004820152600e60248201526d15dc9bdb99c81c185cdcdddbdc9960921b60448201526064015b60405180910390fd5b60023331101561014d5760405162461bcd60e51b8152602060048201526014602482015273496e73756666696369656e742062616c616e636560601b60448201526064016100fb565b604051339060009060019082818181858883f11593506101b3925050505760405162461bcd60e51b815260206004820152601c60248201527f49742073686f756c64206661696c20746f2073656e642065746865720000000060448201526064016100fb565b604051339060009060029082818181858883f19350505050151560011515146102155760405162461bcd60e51b81526020600482015260146024820152732330b4b632b2103a379039b2b7321032ba3432b960611b60448201526064016100fb565b3460021461025c5760405162461bcd60e51b8152602060048201526014602482015273125b9d985b1a5908195d1a195c88185b5bdd5b9d60621b60448201526064016100fb565b60016002600082825461026f919061035f565b90915550506000546040516340c10f1960e01b8152326004820152600860248201526001600160a01b03909116906340c10f1990604401600060405180830381600087803b1580156102c057600080fd5b505af11580156102d4573d6000803e3d6000fd5b5050505050505050565b6000602082840312156102f057600080fd5b5035919050565b60008261031457634e487b7160e01b600052601260045260246000fd5b500690565b634e487b7160e01b600052601160045260246000fd5b8181038181111561034257610342610319565b92915050565b808202811582820484141761034257610342610319565b808201808211156103425761034261031956fea264697066735822122050fd21abd309c3c92f30fbd41aa75eb30ee0ca81207c57efbd92750cf57fc91c64736f6c63430008140033",
  "devdoc": {
    "kind": "dev",
    "methods": {},
    "version": 1
  },
  "userdoc": {
    "kind": "user",
    "methods": {},
    "version": 1
  },
  "storageLayout": {
    "storage": [
      {
        "astId": 8125,
        "contract": "contracts/S2/Season2Challenge8.sol:Season2Challenge8",
        "label": "nftContract",
        "offset": 0,
        "slot": "0",
        "type": "t_address"
      },
      {
        "astId": 8127,
        "contract": "contracts/S2/Season2Challenge8.sol:Season2Challenge8",
        "label": "password",
        "offset": 0,
        "slot": "1",
        "type": "t_bytes32"
      },
      {
        "astId": 8129,
        "contract": "contracts/S2/Season2Challenge8.sol:Season2Challenge8",
        "label": "count",
        "offset": 0,
        "slot": "2",
        "type": "t_uint256"
      }
    ],
    "types": {
      "t_address": {
        "encoding": "inplace",
        "label": "address",
        "numberOfBytes": "20"
      },
      "t_bytes32": {
        "encoding": "inplace",
        "label": "bytes32",
        "numberOfBytes": "32"
      },
      "t_uint256": {
        "encoding": "inplace",
        "label": "uint256",
        "numberOfBytes": "32"
      }
    }
  }
}