{
  "address": "0xc20031bF744190Ba7F2F5643a10AFf48764440fF",
  "abi": [
    {
      "inputs": [
        {
          "internalType": "address",
          "name": "_nftContract",
          "type": "address"
        }
      ],
      "stateMutability": "nonpayable",
      "type": "constructor"
    },
    {
      "inputs": [
        {
          "internalType": "address",
          "name": "",
          "type": "address"
        }
      ],
      "name": "blockNumber",
      "outputs": [
        {
          "internalType": "uint256",
          "name": "",
          "type": "uint256"
        }
      ],
      "stateMutability": "view",
      "type": "function"
    },
    {
      "inputs": [
        {
          "internalType": "uint256",
          "name": "",
          "type": "uint256"
        }
      ],
      "name": "blocks",
      "outputs": [
        {
          "internalType": "bool",
          "name": "",
          "type": "bool"
        }
      ],
      "stateMutability": "view",
      "type": "function"
    },
    {
      "inputs": [
        {
          "internalType": "address",
          "name": "",
          "type": "address"
        }
      ],
      "name": "counts",
      "outputs": [
        {
          "internalType": "uint256",
          "name": "",
          "type": "uint256"
        }
      ],
      "stateMutability": "view",
      "type": "function"
    },
    {
      "inputs": [],
      "name": "futureBlocks",
      "outputs": [
        {
          "internalType": "uint256",
          "name": "",
          "type": "uint256"
        }
      ],
      "stateMutability": "view",
      "type": "function"
    },
    {
      "inputs": [
        {
          "internalType": "bytes",
          "name": "rlpBytes",
          "type": "bytes"
        }
      ],
      "name": "mintFlag",
      "outputs": [],
      "stateMutability": "nonpayable",
      "type": "function"
    },
    {
      "inputs": [],
      "name": "nftContract",
      "outputs": [
        {
          "internalType": "address",
          "name": "",
          "type": "address"
        }
      ],
      "stateMutability": "view",
      "type": "function"
    },
    {
      "inputs": [],
      "name": "preMintFlag",
      "outputs": [],
      "stateMutability": "nonpayable",
      "type": "function"
    }
  ],
  "transactionHash": "0x5f0e3a0ba3396638364ca9d2d27dad13df324e5e99059f3358add8b2b9ddbeb8",
  "args": [
    "0x0A8875B3Cb3642E4f09A1eed79347b3Ef8F882E2"
  ],
  "numDeployments": 1,
  "solcInputHash": "760304bfe83a38663d29b3559b4867ca",
  "bytecode": "0x608060405234801561001057600080fd5b50604051610dc4380380610dc483398101604081905261002f91610054565b600080546001600160a01b0319166001600160a01b0392909216919091179055610084565b60006020828403121561006657600080fd5b81516001600160a01b038116811461007d57600080fd5b9392505050565b610d31806100936000396000f3fe608060405234801561001057600080fd5b506004361061007d5760003560e01c80638c63f32a1161005b5780638c63f32a146100d25780639e5a1ac0146100f2578063d56d229d146100fa578063f25b3f991461012557600080fd5b80630568e65e1461008257806310f081ec146100b55780634f359a37146100ca575b600080fd5b6100a2610090366004610a05565b60026020526000908152604090205481565b6040519081526020015b60405180910390f35b6100c86100c3366004610a44565b610158565b005b6100a2600281565b6100a26100e0366004610a05565b60016020526000908152604090205481565b6100c86104ce565b60005461010d906001600160a01b031681565b6040516001600160a01b0390911681526020016100ac565b610148610133366004610af5565b60036020526000908152604090205460ff1681565b60405190151581526020016100ac565b3360009081526001602052604081205490036101af5760405162461bcd60e51b8152602060048201526011602482015270141c99535a5b9d119b1859c8199a5c9cdd607a1b60448201526064015b60405180910390fd5b336000908152600160205260409020546101cb90600290610b24565b43101561021a5760405162461bcd60e51b815260206004820152601960248201527f46757475726520626c6f636b206e6f7420726561636865642e0000000000000060448201526064016101a6565b3360009081526001602052604090205461023690600290610b24565b61024290610100610b24565b43106102a05760405162461bcd60e51b815260206004820152602760248201527f596f75206d697373207468652077696e646f772e205072654d696e74466c61676044820152661030b3b0b4b71760c91b60648201526084016101a6565b60006102db6102d68360408051808201825260008082526020918201528151808301909252825182529182019181019190915290565b61056e565b90506000610302826008815181106102f5576102f5610b3d565b6020026020010151610684565b3360009081526001602052604090205490915061032190600290610b24565b811461035d5760405162461bcd60e51b815260206004820152600b60248201526a57726f6e6720626c6f636b60a81b60448201526064016101a6565b825160208401208140146103a85760405162461bcd60e51b81526020600482015260126024820152712bb937b73390313637b1b5903432b0b232b960711b60448201526064016101a6565b60006103cd83600d815181106103c0576103c0610b3d565b60200260200101516106d2565b90506000600a8230336040516020016103e893929190610b53565b6040516020818303038152906040528051906020012060001c61040b9190610ba4565b3360009081526002602052604090205490915081106104635760405162461bcd60e51b81526020600482015260146024820152734e6f7420656e6f756768207072652d6d696e747360601b60448201526064016101a6565b6000546040516340c10f1960e01b8152336004820152600b60248201526001600160a01b03909116906340c10f1990604401600060405180830381600087803b1580156104af57600080fd5b505af11580156104c3573d6000803e3d6000fd5b505050505050505050565b4360009081526003602052604090205460ff16156105235760405162461bcd60e51b8152602060048201526012602482015271109b1bd8dac8185b1c9958591e481d5cd95960721b60448201526064016101a6565b436000818152600360209081526040808320805460ff1916600190811790915533845280835281842094909455600290915281208054909190610567908490610b24565b9091555050565b606061057982610750565b61058257600080fd5b600061058d8361078b565b905060008167ffffffffffffffff8111156105aa576105aa610a2e565b6040519080825280602002602001820160405280156105ef57816020015b60408051808201909152600080825260208201528152602001906001900390816105c85790505b50905060006106018560200151610810565b85602001516106109190610b24565b90506000805b848110156106795761062783610892565b915060405180604001604052808381526020018481525084828151811061065057610650610b3d565b60209081029190910101526106658284610b24565b92508061067181610bc6565b915050610616565b509195945050505050565b80516000901580159061069957508151602110155b6106a257600080fd5b6000806106ae8461093b565b8151919350915060208210156106ca5760208290036101000a90045b949350505050565b80516060906106e057600080fd5b6000806106ec8461093b565b9150915060008167ffffffffffffffff81111561070b5761070b610a2e565b6040519080825280601f01601f191660200182016040528015610735576020820181803683370190505b50905060208101610747848285610982565b50949350505050565b8051600090810361076357506000919050565b6020820151805160001a9060c0821015610781575060009392505050565b5060019392505050565b8051600090810361079e57506000919050565b6000806107ae8460200151610810565b84602001516107bd9190610b24565b90506000846000015185602001516107d59190610b24565b90505b80821015610807576107e982610892565b6107f39083610b24565b9150826107ff81610bc6565b9350506107d8565b50909392505050565b8051600090811a60808110156108295750600092915050565b60b8811080610844575060c08110801590610844575060f881105b156108525750600192915050565b60c081101561088657610867600160b8610bdf565b6108749060ff1682610bf8565b61087f906001610b24565b9392505050565b610867600160f8610bdf565b80516000908190811a60808110156108ad5760019150610934565b60b88110156108d3576108c1608082610bf8565b6108cc906001610b24565b9150610934565b60c08110156109005760b78103600185019450806020036101000a85510460018201810193505050610934565b60f8811015610914576108c160c082610bf8565b60f78103600185019450806020036101000a855104600182018101935050505b5092915050565b600080600061094d8460200151610810565b905060008185602001516109619190610b24565b905060008286600001516109759190610bf8565b9196919550909350505050565b8060000361098f57505050565b602081106109c757825182526109a6602084610b24565b92506109b3602083610b24565b91506109c0602082610bf8565b905061098f565b8015610a0057600060016109dc836020610bf8565b6109e890610100610cef565b6109f29190610bf8565b845184518216911916178352505b505050565b600060208284031215610a1757600080fd5b81356001600160a01b038116811461087f57600080fd5b634e487b7160e01b600052604160045260246000fd5b600060208284031215610a5657600080fd5b813567ffffffffffffffff80821115610a6e57600080fd5b818401915084601f830112610a8257600080fd5b813581811115610a9457610a94610a2e565b604051601f8201601f19908116603f01168101908382118183101715610abc57610abc610a2e565b81604052828152876020848701011115610ad557600080fd5b826020860160208301376000928101602001929092525095945050505050565b600060208284031215610b0757600080fd5b5035919050565b634e487b7160e01b600052601160045260246000fd5b80820180821115610b3757610b37610b0e565b92915050565b634e487b7160e01b600052603260045260246000fd5b6000845160005b81811015610b745760208188018101518583015201610b5a565b506bffffffffffffffffffffffff19606095861b8116919093019081529290931b16601482015260280192915050565b600082610bc157634e487b7160e01b600052601260045260246000fd5b500690565b600060018201610bd857610bd8610b0e565b5060010190565b60ff8281168282160390811115610b3757610b37610b0e565b81810381811115610b3757610b37610b0e565b600181815b80851115610c46578160001904821115610c2c57610c2c610b0e565b80851615610c3957918102915b93841c9390800290610c10565b509250929050565b600082610c5d57506001610b37565b81610c6a57506000610b37565b8160018114610c805760028114610c8a57610ca6565b6001915050610b37565b60ff841115610c9b57610c9b610b0e565b50506001821b610b37565b5060208310610133831016604e8410600b8410161715610cc9575081810a610b37565b610cd38383610c0b565b8060001904821115610ce757610ce7610b0e565b029392505050565b600061087f8383610c4e56fea2646970667358221220cf33ff2c4c2a0b90e1c06879152de5ba32c266c4f9ece247eb297366b5ebcbec64736f6c63430008140033",
  "devdoc": {
    "kind": "dev",
    "methods": {},
    "version": 1
  },
  "userdoc": {
    "kind": "user",
    "methods": {},
    "version": 1
  },
  "storageLayout": {
    "storage": [
      {
        "astId": 6733,
        "contract": "contracts/S2/Season2Challenge11.sol:Season2Challenge11",
        "label": "nftContract",
        "offset": 0,
        "slot": "0",
        "type": "t_address"
      },
      {
        "astId": 6737,
        "contract": "contracts/S2/Season2Challenge11.sol:Season2Challenge11",
        "label": "blockNumber",
        "offset": 0,
        "slot": "1",
        "type": "t_mapping(t_address,t_uint256)"
      },
      {
        "astId": 6741,
        "contract": "contracts/S2/Season2Challenge11.sol:Season2Challenge11",
        "label": "counts",
        "offset": 0,
        "slot": "2",
        "type": "t_mapping(t_address,t_uint256)"
      },
      {
        "astId": 6745,
        "contract": "contracts/S2/Season2Challenge11.sol:Season2Challenge11",
        "label": "blocks",
        "offset": 0,
        "slot": "3",
        "type": "t_mapping(t_uint256,t_bool)"
      }
    ],
    "types": {
      "t_address": {
        "encoding": "inplace",
        "label": "address",
        "numberOfBytes": "20"
      },
      "t_bool": {
        "encoding": "inplace",
        "label": "bool",
        "numberOfBytes": "1"
      },
      "t_mapping(t_address,t_uint256)": {
        "encoding": "mapping",
        "key": "t_address",
        "label": "mapping(address => uint256)",
        "numberOfBytes": "32",
        "value": "t_uint256"
      },
      "t_mapping(t_uint256,t_bool)": {
        "encoding": "mapping",
        "key": "t_uint256",
        "label": "mapping(uint256 => bool)",
        "numberOfBytes": "32",
        "value": "t_bool"
      },
      "t_uint256": {
        "encoding": "inplace",
        "label": "uint256",
        "numberOfBytes": "32"
      }
    }
  }
}