{
  "address": "0x81c262aCE3534CF02ACDdf0896db12092C17A6E3",
  "abi": [
    {
      "inputs": [
        {
          "internalType": "address",
          "name": "_owner",
          "type": "address"
        }
      ],
      "stateMutability": "nonpayable",
      "type": "constructor"
    },
    {
      "anonymous": false,
      "inputs": [
        {
          "indexed": true,
          "internalType": "address",
          "name": "owner",
          "type": "address"
        }
      ],
      "name": "OwnerChange",
      "type": "event"
    },
    {
      "inputs": [],
      "name": "claimOwnership",
      "outputs": [],
      "stateMutability": "nonpayable",
      "type": "function"
    },
    {
      "inputs": [],
      "name": "owner",
      "outputs": [
        {
          "internalType": "address",
          "name": "",
          "type": "address"
        }
      ],
      "stateMutability": "view",
      "type": "function"
    }
  ],
  "transactionHash": "0xeaa1922b097b1e53364acb8cb4eef30560e0c6fdee17a688d21459110b187663",
  "args": [
    "0xdbD2bA19030a57431B3EB714784f1Bd68ECFf46D"
  ],
  "numDeployments": 1,
  "solcInputHash": "760304bfe83a38663d29b3559b4867ca",
  "bytecode": "0x608060405234801561001057600080fd5b5060405161019938038061019983398101604081905261002f9161007a565b600080546001600160a01b0319166001600160a01b038316908117825560405190917fb0e6698704f906b344e27d5c15e5c014e1fb1c960fae1d551b984e55e9ca49d991a2506100aa565b60006020828403121561008c57600080fd5b81516001600160a01b03811681146100a357600080fd5b9392505050565b60e1806100b86000396000f3fe6080604052348015600f57600080fd5b506004361060325760003560e01c80634e71e0c81460375780638da5cb5b14603f575b600080fd5b603d606d565b005b6000546051906001600160a01b031681565b6040516001600160a01b03909116815260200160405180910390f35b600080546001600160a01b03191633908117825560405190917fb0e6698704f906b344e27d5c15e5c014e1fb1c960fae1d551b984e55e9ca49d991a256fea26469706673582212205985b47f8285a15dfc5b65651486a427258936b8d3a1bcf736d5cc731929c63964736f6c63430008140033",
  "devdoc": {
    "kind": "dev",
    "methods": {},
    "version": 1
  },
  "userdoc": {
    "kind": "user",
    "methods": {},
    "version": 1
  },
  "storageLayout": {
    "storage": [
      {
        "astId": 5932,
        "contract": "contracts/S1/Season1Challenge7.sol:Season1Challenge7Delegate",
        "label": "owner",
        "offset": 0,
        "slot": "0",
        "type": "t_address"
      }
    ],
    "types": {
      "t_address": {
        "encoding": "inplace",
        "label": "address",
        "numberOfBytes": "20"
      }
    }
  }
}