{
  "address": "0x76b0B7C0B8e686a4e7B2230687D5c24191008557",
  "abi": [
    {
      "inputs": [
        {
          "internalType": "address",
          "name": "_nftContract",
          "type": "address"
        }
      ],
      "stateMutability": "nonpayable",
      "type": "constructor"
    },
    {
      "inputs": [],
      "name": "mintFlag",
      "outputs": [],
      "stateMutability": "nonpayable",
      "type": "function"
    },
    {
      "inputs": [],
      "name": "nftContract",
      "outputs": [
        {
          "internalType": "address",
          "name": "",
          "type": "address"
        }
      ],
      "stateMutability": "view",
      "type": "function"
    }
  ],
  "transactionHash": "0xe4c29090159b23697d9b1b27b3952836770ea97b3e37eb8ec286250daf782a38",
  "args": [
    "0x0A8875B3Cb3642E4f09A1eed79347b3Ef8F882E2"
  ],
  "numDeployments": 1,
  "solcInputHash": "760304bfe83a38663d29b3559b4867ca",
  "bytecode": "0x608060405234801561001057600080fd5b506040516103d13803806103d183398101604081905261002f91610054565b600080546001600160a01b0319166001600160a01b0392909216919091179055610084565b60006020828403121561006657600080fd5b81516001600160a01b038116811461007d57600080fd5b9392505050565b61033e806100936000396000f3fe608060405234801561001057600080fd5b50600436106100365760003560e01c8063d56d229d1461003b578063e00d023f1461006a575b600080fd5b60005461004e906001600160a01b031681565b6040516001600160a01b03909116815260200160405180910390f35b610072610074565b005b3233036100b75760405162461bcd60e51b815260206004820152600c60248201526b53616d65206164647265737360a01b60448201526064015b60405180910390fd5b6000336040516020016100ca91906102d5565b6040516020818303038152906040526013815181106100eb576100eb6102f2565b602001015160f81c60f81b60f81c905060003260405160200161010e91906102d5565b60405160208183030381529060405260138151811061012f5761012f6102f2565b602001015160f81c60f81b60f81c905060003060405160200161015291906102d5565b604051602081830303815290604052600081518110610173576101736102f2565b602001015160f81c60f81b60f81c905060003360405160200161019691906102d5565b6040516020818303038152906040526000815181106101b7576101b76102f2565b016020015160f81c9050600f848116908416146102165760405162461bcd60e51b815260206004820152601b60248201527f57726f6e672073656e6465722f6f726967696e2061646472657373000000000060448201526064016100ae565b60f08181169083161461026b5760405162461bcd60e51b815260206004820152601d60248201527f57726f6e672073656e6465722f636f6e7472616374206164647265737300000060448201526064016100ae565b6000546040516340c10f1960e01b8152326004820152600a60248201526001600160a01b03909116906340c10f1990604401600060405180830381600087803b1580156102b757600080fd5b505af11580156102cb573d6000803e3d6000fd5b5050505050505050565b60609190911b6bffffffffffffffffffffffff1916815260140190565b634e487b7160e01b600052603260045260246000fdfea26469706673582212204dd5d76fef808d24eb3020b386599657a59158e2ffbd3a4459ee5383c9fea4db64736f6c63430008140033",
  "devdoc": {
    "kind": "dev",
    "methods": {},
    "version": 1
  },
  "userdoc": {
    "kind": "user",
    "methods": {},
    "version": 1
  },
  "storageLayout": {
    "storage": [
      {
        "astId": 6607,
        "contract": "contracts/S2/Season2Challenge10.sol:Season2Challenge10",
        "label": "nftContract",
        "offset": 0,
        "slot": "0",
        "type": "t_address"
      }
    ],
    "types": {
      "t_address": {
        "encoding": "inplace",
        "label": "address",
        "numberOfBytes": "20"
      }
    }
  }
}