{
  "address": "0x60bbFA30D4f17365fd992e55C7A543cd11Bb5fe0",
  "abi": [
    {
      "inputs": [
        {
          "internalType": "address",
          "name": "_nftContract",
          "type": "address"
        }
      ],
      "stateMutability": "nonpayable",
      "type": "constructor"
    },
    {
      "inputs": [
        {
          "internalType": "uint256[]",
          "name": "data1",
          "type": "uint256[]"
        },
        {
          "internalType": "uint256[]",
          "name": "data2",
          "type": "uint256[]"
        }
      ],
      "name": "mintFlag",
      "outputs": [],
      "stateMutability": "nonpayable",
      "type": "function"
    },
    {
      "inputs": [],
      "name": "nftContract",
      "outputs": [
        {
          "internalType": "address",
          "name": "",
          "type": "address"
        }
      ],
      "stateMutability": "view",
      "type": "function"
    }
  ],
  "transactionHash": "0xcc468cc98ff8ad36733cd44921d9891ab981f3ae967fbb29982e7f63e233e955",
  "args": [
    "0x0A8875B3Cb3642E4f09A1eed79347b3Ef8F882E2"
  ],
  "numDeployments": 1,
  "solcInputHash": "760304bfe83a38663d29b3559b4867ca",
  "bytecode": "0x608060405234801561001057600080fd5b5060405161041538038061041583398101604081905261002f91610054565b600080546001600160a01b0319166001600160a01b0392909216919091179055610084565b60006020828403121561006657600080fd5b81516001600160a01b038116811461007d57600080fd5b9392505050565b610382806100936000396000f3fe608060405234801561001057600080fd5b50600436106100365760003560e01c8063d56d229d1461003b578063e5062ea01461006a575b600080fd5b60005461004e906001600160a01b031681565b6040516001600160a01b03909116815260200160405180910390f35b61007d6100783660046102ad565b61007f565b005b60008060009054906101000a90046001600160a01b03166001600160a01b03166398bdf6f56040518163ffffffff1660e01b8152600401602060405180830381865afa1580156100d3573d6000803e3d6000fd5b505050506040513d601f19601f820116820180604052508101906100f79190610311565b60d08401518351919250908183146101475760405162461bcd60e51b815260206004820152600e60248201526d57726f6e6720636f756e7465723160901b60448201526064015b60405180910390fd5b61015260808461032a565b81146101915760405162461bcd60e51b815260206004820152600e60248201526d2bb937b7339031b7bab73a32b91960911b604482015260640161013e565b6000546040516340c10f1960e01b8152326004820152600560248201526001600160a01b03909116906340c10f1990604401600060405180830381600087803b1580156101dd57600080fd5b505af11580156101f1573d6000803e3d6000fd5b505050505050505050565b634e487b7160e01b600052604160045260246000fd5b600082601f83011261022357600080fd5b8135602067ffffffffffffffff80831115610240576102406101fc565b8260051b604051601f19603f83011681018181108482111715610265576102656101fc565b60405293845285810183019383810192508785111561028357600080fd5b83870191505b848210156102a257813583529183019190830190610289565b979650505050505050565b600080604083850312156102c057600080fd5b823567ffffffffffffffff808211156102d857600080fd5b6102e486838701610212565b935060208501359150808211156102fa57600080fd5b5061030785828601610212565b9150509250929050565b60006020828403121561032357600080fd5b5051919050565b60008261034757634e487b7160e01b600052601260045260246000fd5b50069056fea2646970667358221220351d92ecbfde48f9c149a2cf560e7a753d640bd261f37613ae783f457e0a420664736f6c63430008140033",
  "devdoc": {
    "kind": "dev",
    "methods": {},
    "version": 1
  },
  "userdoc": {
    "kind": "user",
    "methods": {},
    "version": 1
  },
  "storageLayout": {
    "storage": [
      {
        "astId": 7772,
        "contract": "contracts/S2/Season2Challenge5.sol:Season2Challenge5",
        "label": "nftContract",
        "offset": 0,
        "slot": "0",
        "type": "t_address"
      }
    ],
    "types": {
      "t_address": {
        "encoding": "inplace",
        "label": "address",
        "numberOfBytes": "20"
      }
    }
  }
}