{
  "address": "0x8a02c455bC7e5bdff3799561d689936B617120b5",
  "abi": [
    {
      "inputs": [
        {
          "internalType": "address",
          "name": "_nftContract",
          "type": "address"
        }
      ],
      "stateMutability": "nonpayable",
      "type": "constructor"
    },
    {
      "inputs": [],
      "name": "KEY_VALUE",
      "outputs": [
        {
          "internalType": "uint8",
          "name": "",
          "type": "uint8"
        }
      ],
      "stateMutability": "view",
      "type": "function"
    },
    {
      "inputs": [],
      "name": "MIN_POWER_TO_MINT",
      "outputs": [
        {
          "internalType": "uint8",
          "name": "",
          "type": "uint8"
        }
      ],
      "stateMutability": "view",
      "type": "function"
    },
    {
      "inputs": [],
      "name": "POINTS_TO_UPGRADE",
      "outputs": [
        {
          "internalType": "uint8",
          "name": "",
          "type": "uint8"
        }
      ],
      "stateMutability": "view",
      "type": "function"
    },
    {
      "inputs": [],
      "name": "claimPoints",
      "outputs": [],
      "stateMutability": "nonpayable",
      "type": "function"
    },
    {
      "inputs": [
        {
          "internalType": "address",
          "name": "",
          "type": "address"
        }
      ],
      "name": "levels",
      "outputs": [
        {
          "internalType": "uint8",
          "name": "",
          "type": "uint8"
        }
      ],
      "stateMutability": "view",
      "type": "function"
    },
    {
      "inputs": [],
      "name": "mintFlag",
      "outputs": [],
      "stateMutability": "nonpayable",
      "type": "function"
    },
    {
      "inputs": [],
      "name": "nftContract",
      "outputs": [
        {
          "internalType": "address",
          "name": "",
          "type": "address"
        }
      ],
      "stateMutability": "view",
      "type": "function"
    },
    {
      "inputs": [
        {
          "internalType": "address",
          "name": "",
          "type": "address"
        }
      ],
      "name": "points",
      "outputs": [
        {
          "internalType": "uint8",
          "name": "",
          "type": "uint8"
        }
      ],
      "stateMutability": "view",
      "type": "function"
    },
    {
      "inputs": [],
      "name": "resetPoints",
      "outputs": [],
      "stateMutability": "nonpayable",
      "type": "function"
    },
    {
      "inputs": [],
      "name": "upgradeLevel",
      "outputs": [],
      "stateMutability": "nonpayable",
      "type": "function"
    }
  ],
  "transactionHash": "0xc24c4f66f20d04b794cc95d5ac5ae0b8aefb50f3d15c2a49dbacb59d0b462e32",
  "args": [
    "0x0A8875B3Cb3642E4f09A1eed79347b3Ef8F882E2"
  ],
  "numDeployments": 1,
  "solcInputHash": "760304bfe83a38663d29b3559b4867ca",
  "bytecode": "0x608060405234801561001057600080fd5b5060405161068338038061068383398101604081905261002f91610054565b600080546001600160a01b0319166001600160a01b0392909216919091179055610084565b60006020828403121561006657600080fd5b81516001600160a01b038116811461007d57600080fd5b9392505050565b6105f0806100936000396000f3fe608060405234801561001057600080fd5b506004361061009e5760003560e01c8063358b816611610066578063358b8166146100f857806347082db31461011b578063c8d634dd1461013e578063d56d229d14610146578063e00d023f1461017157600080fd5b806302dd3e52146100a357806304d092c7146100ad5780630a0acf9a146100b55780631e4696ae146100d45780632670f63b146100f0575b600080fd5b6100ab610179565b005b6100ab610251565b6100bd600a81565b60405160ff90911681526020015b60405180910390f35b6100ab326000908152600160205260409020805460ff19169055565b6100bd602081565b6100bd610106366004610519565b60016020526000908152604090205460ff1681565b6100bd610129366004610519565b60026020526000908152604090205460ff1681565b6100bd601e81565b600054610159906001600160a01b031681565b6040516001600160a01b0390911681526020016100cb565b6100ab610376565b32600090815260016020526040902054600a60ff90911610156101d75760405162461bcd60e51b81526020600482015260116024820152704e6f7420656e6f75676820706f696e747360781b60448201526064015b60405180910390fd5b3260009081526001602052604081208054600a92906101fa90849060ff1661055f565b82546101009290920a60ff81810219909316918316021790915532600090815260026020526040812080546001945090926102379185911661057e565b92506101000a81548160ff021916908360ff160217905550565b3260009081526001602052604090205460ff16156102aa5760405162461bcd60e51b8152602060048201526016602482015275416c726561647920636c61696d656420706f696e747360501b60448201526064016101ce565b60405160009033908281818181865af19150503d80600081146102e9576040519150601f19603f3d011682016040523d82523d6000602084013e6102ee565b606091505b50509050806103365760405162461bcd60e51b8152602060048201526014602482015273115e1d195c9b985b0818d85b1b0819985a5b195960621b60448201526064016101ce565b326000908152600160208190526040822080549192909161035b90849060ff1661057e565b92506101000a81548160ff021916908360ff16021790555050565b32600090815260016020526040902054600a60ff909116106103ca5760405162461bcd60e51b815260206004820152600d60248201526c155c19dc98591948199a5c9cdd609a1b60448201526064016101ce565b32600090815260026020908152604080832054600190925290912054601e916103f99160ff9182169116610597565b60ff16101561044a5760405162461bcd60e51b815260206004820152601960248201527f4e6f7420656e6f75676820706f776e657220746f206d696e740000000000000060448201526064016101ce565b326000908152600260209081526040808320546001835292205460ff9081169281169290921b918216146104b25760405162461bcd60e51b815260206004820152600f60248201526e57726f6e67206b65792076616c756560881b60448201526064016101ce565b6000546040516340c10f1960e01b8152326004820152600660248201526001600160a01b03909116906340c10f1990604401600060405180830381600087803b1580156104fe57600080fd5b505af1158015610512573d6000803e3d6000fd5b5050505050565b60006020828403121561052b57600080fd5b81356001600160a01b038116811461054257600080fd5b9392505050565b634e487b7160e01b600052601160045260246000fd5b60ff828116828216039081111561057857610578610549565b92915050565b60ff818116838216019081111561057857610578610549565b60ff81811683821602908116908181146105b3576105b3610549565b509291505056fea26469706673582212200371e78ba1906592127334d926da1e3dfd7a80b791c6bfee04e7f05a25a978f464736f6c63430008140033",
  "devdoc": {
    "kind": "dev",
    "methods": {},
    "version": 1
  },
  "userdoc": {
    "kind": "user",
    "methods": {},
    "version": 1
  },
  "storageLayout": {
    "storage": [
      {
        "astId": 7839,
        "contract": "contracts/S2/Season2Challenge6.sol:Season2Challenge6",
        "label": "nftContract",
        "offset": 0,
        "slot": "0",
        "type": "t_address"
      },
      {
        "astId": 7843,
        "contract": "contracts/S2/Season2Challenge6.sol:Season2Challenge6",
        "label": "points",
        "offset": 0,
        "slot": "1",
        "type": "t_mapping(t_address,t_uint8)"
      },
      {
        "astId": 7847,
        "contract": "contracts/S2/Season2Challenge6.sol:Season2Challenge6",
        "label": "levels",
        "offset": 0,
        "slot": "2",
        "type": "t_mapping(t_address,t_uint8)"
      }
    ],
    "types": {
      "t_address": {
        "encoding": "inplace",
        "label": "address",
        "numberOfBytes": "20"
      },
      "t_mapping(t_address,t_uint8)": {
        "encoding": "mapping",
        "key": "t_address",
        "label": "mapping(address => uint8)",
        "numberOfBytes": "32",
        "value": "t_uint8"
      },
      "t_uint8": {
        "encoding": "inplace",
        "label": "uint8",
        "numberOfBytes": "1"
      }
    }
  }
}