{
  "address": "0x6C5ACD3A6D2Fc376158935AD0D4191580E11A9E1",
  "abi": [
    {
      "inputs": [
        {
          "internalType": "address",
          "name": "_nftContract",
          "type": "address"
        }
      ],
      "stateMutability": "nonpayable",
      "type": "constructor"
    },
    {
      "anonymous": false,
      "inputs": [
        {
          "indexed": true,
          "internalType": "address",
          "name": "player",
          "type": "address"
        },
        {
          "indexed": false,
          "internalType": "string",
          "name": "name",
          "type": "string"
        }
      ],
      "name": "BuilderInit",
      "type": "event"
    },
    {
      "inputs": [
        {
          "internalType": "address",
          "name": "",
          "type": "address"
        }
      ],
      "name": "builderNames",
      "outputs": [
        {
          "internalType": "string",
          "name": "",
          "type": "string"
        }
      ],
      "stateMutability": "view",
      "type": "function"
    },
    {
      "inputs": [],
      "name": "nftContract",
      "outputs": [
        {
          "internalType": "address",
          "name": "",
          "type": "address"
        }
      ],
      "stateMutability": "view",
      "type": "function"
    },
    {
      "inputs": [
        {
          "internalType": "string",
          "name": "_name",
          "type": "string"
        }
      ],
      "name": "registerMe",
      "outputs": [],
      "stateMutability": "nonpayable",
      "type": "function"
    }
  ],
  "transactionHash": "0xc958110954985114de0d162d61e1fd9ef338dd4ce985261991604f4b2b6bef01",
  "args": [
    "0xC9eB4F475584D049ed99979162d8D5DF28f1C436"
  ],
  "numDeployments": 1,
  "solcInputHash": "760304bfe83a38663d29b3559b4867ca",
  "bytecode": "0x608060405234801561001057600080fd5b506040516105ae3803806105ae83398101604081905261002f91610054565b600080546001600160a01b0319166001600160a01b0392909216919091179055610084565b60006020828403121561006657600080fd5b81516001600160a01b038116811461007d57600080fd5b9392505050565b61051b806100936000396000f3fe608060405234801561001057600080fd5b50600436106100415760003560e01c8063218add391461004657806368e25d211461005b578063d56d229d14610084575b600080fd5b61005961005436600461026d565b6100af565b005b61006e61006936600461031e565b6101bd565b60405161007b919061034e565b60405180910390f35b600054610097906001600160a01b031681565b6040516001600160a01b03909116815260200161007b565b60008151116100fb5760405162461bcd60e51b81526020600482015260146024820152734e616d652063616e6e6f7420626520656d70747960601b604482015260640160405180910390fd5b3360009081526001602052604090206101148282610425565b50336001600160a01b03167f84eda20b071e690362c8a5360cc7b6118b43bb8d641adbf0b4366c577eca5cba8260405161014e919061034e565b60405180910390a26000546040516340c10f1960e01b8152336004820152600160248201526001600160a01b03909116906340c10f1990604401600060405180830381600087803b1580156101a257600080fd5b505af11580156101b6573d6000803e3d6000fd5b5050505050565b600160205260009081526040902080546101d69061039c565b80601f01602080910402602001604051908101604052809291908181526020018280546102029061039c565b801561024f5780601f106102245761010080835404028352916020019161024f565b820191906000526020600020905b81548152906001019060200180831161023257829003601f168201915b505050505081565b634e487b7160e01b600052604160045260246000fd5b60006020828403121561027f57600080fd5b813567ffffffffffffffff8082111561029757600080fd5b818401915084601f8301126102ab57600080fd5b8135818111156102bd576102bd610257565b604051601f8201601f19908116603f011681019083821181831017156102e5576102e5610257565b816040528281528760208487010111156102fe57600080fd5b826020860160208301376000928101602001929092525095945050505050565b60006020828403121561033057600080fd5b81356001600160a01b038116811461034757600080fd5b9392505050565b600060208083528351808285015260005b8181101561037b5785810183015185820160400152820161035f565b506000604082860101526040601f19601f8301168501019250505092915050565b600181811c908216806103b057607f821691505b6020821081036103d057634e487b7160e01b600052602260045260246000fd5b50919050565b601f82111561042057600081815260208120601f850160051c810160208610156103fd5750805b601f850160051c820191505b8181101561041c57828155600101610409565b5050505b505050565b815167ffffffffffffffff81111561043f5761043f610257565b6104538161044d845461039c565b846103d6565b602080601f83116001811461048857600084156104705750858301515b600019600386901b1c1916600185901b17855561041c565b600085815260208120601f198616915b828110156104b757888601518255948401946001909101908401610498565b50858210156104d55787850151600019600388901b60f8161c191681555b5050505050600190811b0190555056fea264697066735822122061c234ae8f704d1061bcc59ac6c841ab6a00476fbdc155b9d8c8ce6460ebf5ff64736f6c63430008140033",
  "devdoc": {
    "kind": "dev",
    "methods": {},
    "version": 1
  },
  "userdoc": {
    "kind": "user",
    "methods": {},
    "version": 1
  },
  "storageLayout": {
    "storage": [
      {
        "astId": 5213,
        "contract": "contracts/S1/Season1Challenge1.sol:Season1Challenge1",
        "label": "nftContract",
        "offset": 0,
        "slot": "0",
        "type": "t_address"
      },
      {
        "astId": 5217,
        "contract": "contracts/S1/Season1Challenge1.sol:Season1Challenge1",
        "label": "builderNames",
        "offset": 0,
        "slot": "1",
        "type": "t_mapping(t_address,t_string_storage)"
      }
    ],
    "types": {
      "t_address": {
        "encoding": "inplace",
        "label": "address",
        "numberOfBytes": "20"
      },
      "t_mapping(t_address,t_string_storage)": {
        "encoding": "mapping",
        "key": "t_address",
        "label": "mapping(address => string)",
        "numberOfBytes": "32",
        "value": "t_string_storage"
      },
      "t_string_storage": {
        "encoding": "bytes",
        "label": "string",
        "numberOfBytes": "32"
      }
    }
  }
}